:020000040000FA
:100000000C94A2000C94CA000C94CA000C94691AB7
:100010000C94691A0C94691A0C94CA000C94CA00C6
:100020000C94CA000C94CA000C94CA000C94731A65
:100030000C94CA000C94CA000C94CA000C94CA0018
:100040000C941F1A0C94CA000C94ED190C94C71947
:100050000C94CA000C94CA000C94CA000C94CA00F8
:100060000C942F1B0C94CA0000000000000000003C
:100070000000000000000000000000000000000080
:1000800000000000000000000082210000000002CB
:10009000390F0000004080003F065B4F666D7D0712
:1000A0007F6F00000048005300777C395E79716FE4
:1000B00076061E003800543F7367506D783E00008E
:1000C000006E0039000F0008635F7C585E7B716F23
:1000D00074021E000600545C7367506D781C0000AB
:1000E000006E0039300F00000000000024002700DF
:1000F0002A0000000000250028002B00000000005E
:100100002300260029000404040404040404020259
:100110000202020203030303030301020408102086
:100120004080010204081020010204081020000091
:1001300000080002010000030407000000000000A6
:1001400000004E1C11241FBECFEFD8E0DEBFCDBF94
:1001500012E0A0E0B1E0E8E6FCE402C005900D92F8
:10016000A632B107D9F725E0A6E2B2E001C01D92A0
:10017000A736B207E1F710E0C2EAD0E004C0219749
:10018000FE010E942424C13AD107C9F70E94661DCE
:100190000C9432260C940000862FE0910B03F09112
:1001A0000C03309711F0BA0109940895862FE0915D
:1001B0000903F0910A03309711F0BA0109940895E8
:1001C000862FE0910703F0910803309711F0BA01F0
:1001D00009940895862FE0910503F0910603309766
:1001E00011F0BA0109940895862FE0910303F0916C
:1001F0000403309711F0BA0109940895862FE09115
:100200000103F0910203309711F0BA0109940895A7
:100210000895862F642FE0910D03F0910E0330971F
:1002200011F0A90109940895E0910F03F0911003D2
:10023000309709F009940895CF93DF93FC01A081D2
:10024000B181109701F1EC01ED91FC9111970190B2
:10025000F081E02D69EFCD01099588819981DC015C
:10026000ED91FC910190F081E02D62E0099588818B
:100270009981DC01ED91FC910190F081E02D65E028
:10028000DF91CF910994DF91CF910895A091B404AB
:10029000B091B504ED91FC9111970190F081E02DA2
:1002A000682FCD0109941F93CF93DF93182FEB0193
:1002B00080917B0490917C046817790760F48091A9
:1002C000790490917A04C80FD91F188380E0DF91D8
:1002D000CF911F910895E091A804F091A90430975F
:1002E00011F481E0F4CF81E080937804809194044C
:1002F00090919504099580917B0490917C04C81796
:10030000D90778F7DCCFCF93DF93EC01FB0130E026
:1003100020E0C901880F991F8C179D0778F4408150
:10032000DB014D93BD011197918197959927979581
:10033000942B9C932F5F3F4F3296EBCFC901DF91F7
:10034000CF910895009721F0805C9F4F0C941C0181
:100350000895AF92BF92CF92DF92EF92FF920F93E8
:100360001F93CF93DF936C017B018B01040F151F4B
:10037000EB015E01AE18BF08C017D10759F06991B3
:10038000D601ED91FC910190F081E02DC601099517
:10039000892B79F7C501DF91CF911F910F91FF90C4
:1003A000EF90DF90CF90BF90AF900895FC01538DF8
:1003B000448D252F30E0842F90E0821B930B54173F
:1003C00010F0CF96089501970895FC01918D828DCC
:1003D000981761F0A28DAE0FBF2FB11D5D968C9165
:1003E000928D9F5F9F73928F90E008958FEF9FEFA4
:1003F0000895FC01918D828D981731F0828DE80F60
:10040000F11D858D90E008958FEF9FEF0895FC0119
:10041000918D228D892F90E0805C9F4F821B9109E6
:100420008F739927089589E993E00E94070221E0DC
:10043000892B09F420E0822F089580E090E0892B39
:1004400029F00E94130281110C9400000895FC0110
:10045000A48DA80FB92FB11DA35ABF4F2C91848D25
:1004600090E001968F739927848FA689B7892C9382
:10047000A089B1898C91837080648C93938D848DD5
:10048000981306C00288F389E02D80818F7D8083D8
:100490000895EF92FF920F931F93CF93DF93EC0198
:1004A00081E0888F9B8D8C8D98131AC0E889F9891B
:1004B000808185FF15C09FB7F894EE89FF8960831E
:1004C000E889F98980818370806480839FBF81E09F
:1004D00090E0DF91CF911F910F91FF90EF900895E1
:1004E000F62E0B8D10E00F5F1F4F0F731127E02EBC
:1004F0008C8D8E110CC00FB607FCFACFE889F989F4
:10050000808185FFF5CFCE010E942702F1CFEB8DD0
:10051000EC0FFD2FF11DE35AFF4FF0829FB7F894C7
:100520000B8FEA89FB8980818062CFCFCF93DF93E5
:10053000EC01888D8823B9F0AA89BB89E889F989FB
:100540008C9185FD03C0808186FD0DC00FB607FC30
:10055000F7CF8C9185FFF2CF808185FFEDCFCE0163
:100560000E942702E9CFDF91CF910895833081F077
:1005700028F4813099F08230A9F008958730A9F0ED
:100580008830C9F08430B1F4809180008F7D03C041
:10059000809180008F7780938000089584B58F7755
:1005A00084BD089584B58F7DFBCF8091B0008F7797
:1005B0008093B00008958091B0008F7DF9CFCF93E4
:1005C000DF93282F30E0F901E25DFE4F8491F901BD
:1005D000E65EFE4FD491F901EA5FFE4FC491CC2351
:1005E000A1F081110E94B602EC2FF0E0EE0FFF1F88
:1005F000E450FF4FA591B491EC91ED2381E090E0A0
:1006000009F480E0DF91CF91089580E090E0FACF87
:100610001F93CF93DF93282F30E0F901E25DFE4F67
:100620008491F901E65EFE4FD491F901EA5FFE4F35
:10063000C491CC23A9F0162F81110E94B602EC2F91
:10064000F0E0EE0FFF1FEE50FF4FA591B4918FB772
:10065000F894EC91111108C0D095DE23DC938FBF84
:10066000DF91CF911F910895DE2BF8CFCF93DF93C9
:1006700090E0FC01E65EFE4F24918A5F9E4FFC01F4
:1006800084918823C9F090E0880F991FFC01E851FC
:10069000FF4FA591B491FC01EE50FF4FC591D4914D
:1006A00061110DC09FB7F8948C91209582238C9393
:1006B0008881282328839FBFDF91CF9108956230DE
:1006C00051F49FB7F8943C91822F809583238C93AB
:1006D000E8812E2BEFCF8FB7F894EC912E2B2C9333
:1006E0008FBFEACF8E3008F08E5087708064809381
:1006F0007C0080917A00806480937A0080917A00F7
:1007000086FDFCCF809178009091790008953FB7E5
:10071000F8948091FD029091FE02A091FF02B091A9
:10072000000326B5A89B05C02F3F19F00196A11D17
:10073000B11D3FBFBA2FA92F982F8827BC01CD012B
:10074000620F711D811D911D42E0660F771F881F8A
:10075000991F4A95D1F708958F929F92AF92BF92B9
:10076000CF92DF92EF92FF926B017C010E94870390
:100770004B015C01C114D104E104F104B9F00E9401
:100780008703681979098A099B09683E73408105C6
:10079000910580F321E0C21AD108E108F10888EE42
:1007A000880E83E0981EA11CB11CE4CFFF90EF904F
:1007B000DF90CF90BF90AF909F908F900895CF9291
:1007C000DF92EF92FF92CF93DF93EC018B819C81BC
:1007D0008617970709F471C07C836B83603282E0CF
:1007E0007807D4F58981B8E8CB2ED12CC81AD10866
:1007F00087FDD394CC0CDD1CCC0CDD1C0D2C000C27
:10080000EE08FF088A8128E532E0281B310987FDC0
:100810003395220F331F220F331F032E000C440B7E
:10082000550B2C193D094E095F09DB01653B71052C
:1008300014F0A4EBB0E0B7FF02C0B0E0A0E00E946B
:10084000862224EB30E040E050E00E945C22C20EA1
:10085000D31EE41EF51EB601E881EC3070F5298147
:1008600088E890E0821B910927FD9395880F991FD6
:10087000880F991F681779077CF02A8188E592E034
:10088000821B910927FD9395880F991F880F991F47
:10089000681779070CF4CB010297880F991F4FB79F
:1008A000F8942E2F30E0F901EE0FFF1FE20FF31F37
:1008B000EE5FFA4F928381834FBFDF91CF91FF901C
:1008C000EF90DF90CF900895DF92EF92FF920F9319
:1008D0001F93CF93DF93EC01D62E7A018901888193
:1008E0008C3008F067C061E08D2D0E94360388814E
:1008F000282F30E0F901EE0FFF1FE20FF31FEE5F2C
:10090000FA4F9D2D9F736081607C692B608320E28C
:1009100032E02E193F0937FF02C02D5F3F4F35955A
:10092000279535952795298320E639E0201B310B43
:1009300037FF02C02D5F3F4F359527953595279599
:100940002A832CE0622F0E940424829FB00111248C
:1009500030E020E0AB01420F531FFA01EE0FFF1F02
:10096000E40FF51FEE5FFA4F908196FD16C02F5FE2
:100970003F4F2C30310571F781110FC0109280006C
:1009800082E0809381001092850010928400B19AD9
:1009900080916F00826080936F00E8818E2F90E0DD
:1009A000FC01EE0FFF1FE80FF91FEE5FFA4F808189
:1009B000806480838881DF91CF911F910F91FF9098
:1009C000EF90DF9008958F929F92AF92BF92CF9257
:1009D000DF92EF92FF92CF93DF93FC014A01AA24AA
:1009E000BB24C32ED42EE52EFF24DC2DC22F808500
:1009F000982D882391F0C82FD0E0C89DD001C99DC3
:100A0000B00DD89DB00D11249B2F8C9D6001112439
:100A1000DD2D829F90011124C32FA685218532856B
:100A20008385A81321C0AB01440F551F640F751FA8
:100A3000620F731FA385A60FB72FB11D9C93A485CA
:100A4000A60FB72FB11DDC938585680F711DFB01C3
:100A5000C083DF91CF91FF90EF90DF90CF90BF9058
:100A6000AF909F908F900895660F771F660F771F46
:100A7000620F731FA60FB72FB11D1C92DBCFCF9251
:100A8000DF92EF92FF920F931F93CF93DF93CDB737
:100A9000DEB729970FB6F894DEBF0FBECDBF8C012D
:100AA000D8011F96CD90DD90ED90FC9052970E945A
:100AB00087036C157D058E059F0538F40E9487031A
:100AC000F8016787708B818B928B0E948703D80116
:100AD0001F96CD90DD90ED90FC9052976C197D099A
:100AE0008E099F096C32714081059105C8F2F89416
:100AF000F801848195819A8389830184F285E02DB0
:100B00007F012FEFE21AF20A80818F83D8019C9136
:100B10005396ED91FC91549755968C91992309F435
:100B200048C09081982B98879081809589238987E8
:100B300089858B8388E08C83588569854F813C81CA
:100B40002B8189819A81D701508347FD252F3A95C2
:100B50002083262F39F0441F00C00000608300006E
:100B600000C0F2CF38E04D9160830000019761F73B
:100B7000D8015496FC93EE9353974F833C832B8379
:100B80009A83898378940E948703F8016787708B22
:100B9000818B928B29960FB6F894DEBF0FBECDBF26
:100BA000DF91CF911F910F91FF90EF90DF90CF9049
:100BB00008959081982B98879081809589238987C3
:100BC00089858D8388E08E83588569854F813E8134
:100BD0002D8189819A81D701508347FD252F00C03F
:100BE00000C0208300C000C000C000C000C06083FF
:100BF0000000262F3A9541F0441F000000C000C0BD
:100C000000C000C000C0E8CF38E04D9100C0608354
:100C100000C0019709F7D8015496FC93EE935397BF
:100C20004F833E832D83ACCF2F923F924F925F92A2
:100C30006F927F928F929F92AF92BF92CF92DF92EC
:100C4000EF92FF920F931F93CF93DF938C01490193
:100C50005A019B0150E040E060E472E48FE090E0D4
:100C60000E945C22690161E0F80180810E943603E4
:100C7000A8EEB3E0A50194010E947B222B013C0168
:100C8000E601D7FC2196D595C7951E01220C331C91
:100C9000220C331CF5E02F1A31080D2C000CEE0845
:100CA000FF08812C912C540184149504A604B704E8
:100CB000E0F461E0F80180810E940803C230D105B0
:100CC00018F0C1010197F1F760E0F80180810E94FE
:100CD0000803C230D10518F0C1010197F1F7A895BA
:100CE0008C0C9D1CAE1CBF1CDFCF60E070E0CB0104
:100CF000DF91CF911F910F91FF90EF90DF90CF90F8
:100D0000BF90AF909F908F907F906F905F904F902B
:100D10003F902F900C94AC035F926F927F928F92D2
:100D20009F92AF92BF92CF92DF92EF92FF920F937A
:100D30001F93CF93DF935C016901DA015C90232B51
:100D400019F4CC24CA94DC2C8A013A01660E771E71
:100D5000D0E0C0E0F12CE12C87E0882E912CF50149
:100D600080819181D8016C910C2E01C0660F0A948C
:100D7000EAF765296F77DC01ED91FC910190F08134
:100D8000E02D0995BFEFEB1AFB0AF801608170E0D6
:100D9000C4018C1B9D0B02C0759567958A95E2F77F
:100DA000562E2196C730D10558F1CE14DF0441F1FB
:100DB000D5018D919C91652D6F77DC01ED91FC91B2
:100DC0000190F081E02D0995BFEFEB1AFB0A551C4D
:100DD0005524551C2797E6CFEC14FD0408F4BFCF2B
:100DE000DF91CF911F910F91FF90EF90DF90CF9007
:100DF000BF90AF909F908F907F906F905F9008957D
:100E00000F5F1F4F6016710639F7209749F3EC14F6
:100E1000FD0430F7F5018081918161E070E001C04F
:100E2000660FCA95EAF761506521DC01ED91FC91EE
:100E30000190F081E02DDF91CF911F910F91FF90F4
:100E4000EF90DF90CF90BF90AF909F908F907F906A
:100E50006F905F9009941F93CF93DF9300D0CDB72D
:100E6000DEB7182F7A836983809176049091770496
:100E70000097C9F0DC01ED91FC910190F081E02D2B
:100E80001031B8F461157044A0F4612F606E0995BB
:100E900022E030E0AE014F5F5F4F62E070E086E736
:100EA00094E00E948C060F900F90DF91CF911F91DC
:100EB000089560EF09958091760490917704DC01A4
:100EC000ED91FC910190F081E02D6FE60995809104
:100ED000760490917704DC01ED91FC910190F08112
:100EE000E02D612F099522E030E0AE014F5F5F4FAA
:100EF00062E070E086E794E00E948C0680917604C0
:100F000090917704DC01ED91FC910190F081E02D4E
:100F100067EF0995C8CFEF92FF920F931F93CF937E
:100F2000DF93C82F80917604909177040097C9F1E0
:100F30007A018B01DC01ED91FC910190F081E02DB3
:100F400060EF09958091760490917704DC01ED9132
:100F5000FC910190F081E02D6C2F0995E7010E0DB9
:100F60001F1DC017D10759F030E020E0AE0161E04D
:100F700070E086E794E00E948C062196F2CF809183
:100F8000760490917704DC01ED91FC910190F08161
:100F9000E02D67EFDF91CF911F910F91FF90EF90C0
:100FA0000994DF91CF911F910F91FF90EF900895D9
:100FB000CF92DF92EF92FF920F931F93CF93DF9325
:100FC000FC01E058FF4FE080EE2009F45CC0EC012A
:100FD000C05CDF4FA881B981109709F454C0FC01AF
:100FE000EF57FF4FC080D180F60111810081ED9154
:100FF000FC9111970190F081E02D60EFCD010995F2
:1010000088819981DC01ED91FC910190F081E02DC6
:1010100069E7099588819981DC01ED91FC91019046
:10102000F081E02D602F099588819981DC01ED9197
:10103000FC910190F081E02D612F0995F12C01E0E8
:1010400010E00F5F1F4FE016F10659F030E020E08E
:10105000A601400F511F61E070E0CE010E948C0696
:10106000F0CF88819981DC01ED91FC910190F081B4
:10107000E02D67EFDF91CF911F910F91FF90EF90DF
:10108000DF90CF900994DF91CF911F910F91FF9046
:10109000EF90DF90CF900895009711F00C94D8074F
:1010A00008952091D402260F3327331F21323105B2
:1010B000ECF420916F03FC0190E080E0243069F0B3
:1010C00082E00895A091D4022191AC014E545D4F6D
:1010D000A40FB52FB11D2C930196861798F380911C
:1010E000D402680F6093D40280E0089581E00895EF
:1010F00010926F0381E080936E031092490361E0C8
:1011000082E10E94080361E083E10E940803E9EBA9
:10111000F0E080818E7F808380818D7F808388E472
:101120008093B80085E48093BC000895CF93DF934B
:1011300091E09093B1028823B9F0C091B800D091AA
:10114000BA008091BC008A7B8093BC0060E082E1A1
:101150000E94080360E083E10E9408030E9478086F
:10116000D093BA00C093B800DF91CF9108958F92C9
:101170009F92AF92BF92CF92DF92EF92FF920F9326
:101180001F93CF93DF93D0919803D13208F0D7C04B
:10119000182FC09197030E9487036B017C018091F7
:1011A0006F0381116BC082E080936F0310936E0315
:1011B0008FEF80936D0310926C03D0936B03A7E7BE
:1011C000B3E0EBE4F3E080E0D81391C010924A035F
:1011D00080914A03CC0FC82BC0934A0380914903E6
:1011E000813009F088C0109249030E9487036B0187
:1011F0007C0180914A038093BB00809171039091A0
:101200007203A0917303B0917403892B8A2B8B2BEB
:10121000A1F00E9487030091710310917203209145
:101220007303309174036C197D098E099F090617A9
:1012300017072807390708F442C08091BC0083FDD6
:10124000D8CF85EC8093BC000E9487036B017C01A2
:1012500080916F03823009F450C080916D038F3FFD
:1012600009F46FC080916D03803209F46CC08091E5
:101270006D03803309F469C084E026C08091710356
:1012800090917203A0917303B0917403892B8A2B00
:101290008B2B09F484CF0E94870380907103909078
:1012A0007203A0907303B09074036C197D098E09CA
:1012B0009F0986169706A806B90608F070CF809198
:1012C00070030E94960885E01092760310929803AE
:1012D00010927503DF91CF911F910F91FF90EF90C6
:1012E000DF90CF90BF90AF909F908F9008959D9189
:1012F00091938F5F69CF85EEA5CF80917103909117
:101300007203A0917303B0917403892B8A2B8B2BEA
:1013100009F49ECF0E94870300917103109172031C
:1013200020917303309174036C197D098E099F0914
:10133000061717072807390708F08ACFC0CF81E0C2
:10134000C3CF80E0C1CF82E0BFCF83E0BDCF08959F
:1013500008950895E091B0028091AF02E81730F44B
:10136000F0E0E157FD4F808190E008958FEF9FEF0F
:1013700008959091B0028091AF022FEF3FEF981740
:1013800048F4E92FF0E0E157FD4F208130E09F5F06
:101390009093B002C90108958091AF029091B0027C
:1013A000891B990B0895CF92DF92EF92FF920F93D2
:1013B0001F93CF93DF937C01CB018A0120917503AA
:1013C000222389F0EB016B01C40ED51ECC15DD057F
:1013D00069F06991D701ED91FC910190F081E02DC8
:1013E000C7010995F3CF642F0E945108C801DF910E
:1013F000CF911F910F91FF90EF90DF90CF900895C4
:10140000CF93DF931F92CDB7DEB769832091750329
:101410002223F9F020919803203258F021E030E0A7
:10142000FC013383228390E080E00F90DF91CF9125
:10143000089580917603E82FF0E0E958FC4F9981F8
:1014400090838F5F809376038093980381E090E090
:10145000ECCF61E0CE0101960E945108F7CF90E0F9
:1014600080E00895CF938630B0F421E030E0082E7C
:1014700002C0220F331F0A94E2F7409143035091B8
:101480004403672B51F42095309524233523309362
:10149000440320934303CF910895242B352B30939D
:1014A00044032093430390918E029111F4CFC82FEF
:1014B0000E947203BC018C2FCF910C942B075F927A
:1014C0006F927F928F929F92AF92BF92CF92DF9254
:1014D000EF92FF920F931F93CF93DF93833008F027
:1014E00061C0D1E0D80FDD0FDD0FDD0F5D2ED531EE
:1014F00010F044E1542EC62F082FD8508D2E912C79
:10150000C401880F991F9C012A5C3B4F5901D12CC3
:10151000C12C10E077247394D515C8F58EEF8D0F8C
:101520008231F8F4F601E80DF91DE754FB4F908184
:101530009230B8F48C2F872166246394811101C006
:10154000612C7601EE0CFF1C913089F4172937E9E4
:10155000E30EF11CF501EE0DFF1D862D90E0918349
:101560008083770CDF5F8FEFC81AD80AD5CF882326
:1015700071F3F701E956FF4FEA0DFB1D8081918160
:10158000019729F362E08D2F0E943603E0CF01110D
:1015900019C0F8948BB16C2F68276C7F6123682782
:1015A0006BB97894DF91CF911F910F91FF90EF90DD
:1015B000DF90CF90BF90AF909F908F907F906F9073
:1015C0005F9008950130D1F4C123F89495B1812F33
:1015D0008F73809589239C2F9F73892B85B988B140
:1015E000612F629566956695637060956823C295D4
:1015F000C695C695C370C62BC8B9D3CF1F70F894D3
:1016000098B1812F880F880F80958923C123CC0F33
:10161000CC0FC82BF1CFFF920F931F93CF93DF9383
:10162000843118F5EB01F82E082F10E0F801E7548B
:10163000FB4F80818330F9F08430B9F48EEF8F0D49
:10164000823160F4F801EA58FD4F808125E0829FE5
:10165000C0011124895D9A4F0E94DF03000F111F02
:10166000F801E353FB4FD183C083DF91CF911F91EA
:101670000F91FF90089583E0F81641F08BEF8F0DE6
:10168000823020F087EF8F0D833040F761E08F2D9F
:101690000E943603209729F460E08F2D0E940803F2
:1016A000DDCFCF3FD10511F461E0F7CFF801E25D66
:1016B000FE4FE491E33019F140F4E130B1F0E23053
:1016C000C9F0C038D10584F7E7CFE73011F1E83031
:1016D00041F1E430B1F78091800080628093800016
:1016E000D0938B00C0938A00B9CF84B5806884BD45
:1016F000C7BDB4CF84B5806284BDC8BDAFCF809173
:101700008000806880938000D0938900C093880017
:10171000A5CF8091B00080688093B000C093B300E3
:101720009DCF8091B00080628093B000C093B400E0
:1017300095CF9EEF980F923180F4E82FF0E0DF0113
:10174000A754BB4F9C91913041F4EE0FFF1FE35320
:10175000FB4F608371830C9408030895FF920F93ED
:101760001F93CF93DF9300D0CDB7DEB7082F10E0E3
:10177000F801EF5EFC4F9081F62EF92206571D4FBF
:10178000411104C0F80190819F1511F12F2D30E017
:101790003A832983A0917604B09177041097B1F031
:1017A000682F6F706069ED91FC9111970190F08145
:1017B000E02DCD01099522E030E0AE014F5F5F4F93
:1017C00062E070E086E794E00E948C06F801F08207
:1017D0000F900F90DF91CF911F910F91FF9008957F
:1017E000833040F5282F30E0F901EC5EFC4F608338
:1017F000672B01F12F5E3C4FF9016081811106C01A
:1018000099B19C7F692341E00C94AE0B813049F47F
:1018100093B126B19F73F0E42F9F90011124922B76
:10182000F1CF26B130E035952795359527952F7066
:101830006223E9CF0895A82FB0E0AA58BD4F9C912C
:1018400085E0989FF0011124E95DFA4FE0812E2F89
:1018500030E0F901EE0FFF1FE20FF31FEE5FFA4FCA
:1018600080818F7B808380917402981308C09923B4
:1018700019F09150909374028FEF8C930895882300
:10188000D9F3E0917502EF5FE0937502F0E0EB5D54
:10189000FD4F9083F1CFFC0101900020E9F73197D3
:1018A000BF01681B790BAC0181E70C948B07CF93C8
:1018B000DF93DB01909174029C3078F530917502D2
:1018C000682F70E0FB01EA58FD4F3323E1F0C32F8E
:1018D000D0E0CB5DDD4F888180833150309375023D
:1018E000808125E0829FC0011124895D9A4F1A16DC
:1018F0001B0674F4141615065CF49A01AD01DF9111
:10190000CF910C94640490839F5F90937402E8CF0E
:1019100020E639E040E252E0F2CF8DE291E0DF9143
:10192000CF910C944B0CCF93DF93EC01888199817C
:10193000009711F00E94C624198218821D821C8211
:101940001B821A82DF91CF910895FC0180819181E1
:10195000009711F00C94C62408950F931F93CF9312
:10196000DF93EC0188819981009759F02A813B81AE
:101970002617370730F081E0DF91CF911F910F914B
:1019800008958B016F5F7F4F0E944F25009759F09C
:10199000998388831B830A832C813D81232B59F7EC
:1019A000FC011082E8CF80E0E7CFEF92FF920F9327
:1019B0001F93CF93DF936115710541F480E0DF91B0
:1019C000CF911F910F91FF90EF9008954115510510
:1019D000B1F07B01EC010C811D81040F151FB801D2
:1019E0000E94AD0C882351F3288139818C819D811F
:1019F000B701820F931F0E941C261D830C8381E078
:101A0000DECFEF92FF920F931F93CF93DF93EC0102
:101A10007B018A01BA010E94AD0C81110BC0CE017D
:101A20000E94930CCE01DF91CF911F910F91FF90F7
:101A3000EF9008951D830C83B701888199810E94DE
:101A40001C26F0CFCF93DF93DC0198E013968C91A6
:101A50001397809567FFDFC01A96ED91FC911B9755
:101A60002081822380831C968C911C97882351F0BF
:101A70001696ED91FC911797808113962C911397F0
:101A8000822B80831896ED91FC91199720811296F4
:101A90008C9112978095822380831C968C911C9741
:101AA000882351F01496ED91FC9115978081129640
:101AB0002C911297822B8083E7ECF0E03197F1F7BD
:101AC00000C000001496ED91FC91159720811296AC
:101AD0008C9112978095822380831896ED91FC91CA
:101AE0001997808112962C911297822B8083E7ECB4
:101AF000F0E03197F1F700C0000067FF15C01696BF
:101B0000ED91FC911797208113968C9113978095F6
:101B1000822380831A96ED91FC911B978081139606
:101B20002C911397822B8083E7ECF0E03197F1F74B
:101B300000C00000660F915009F088CF1A96ED9111
:101B4000FC911B97908113968C9113978095892314
:101B500080831C968C911C97882351F01696ED91EA
:101B6000FC911797808113969C911397892B808302
:101B70001896ED91FC911997908112968C9112977D
:101B80008095892380831C968C911C97882351F023
:101B90001496ED91FC911597808112969C91129765
:101BA000892B808387EC90E00197F1F700C000005B
:101BB0001196EC911197F0E0EA5FFE4FE491F0E0AE
:101BC000EE0FFF1FE450FF4FC591D49198811496FA
:101BD000ED91FC911597208112968C91129780952A
:101BE000822380831896ED91FC911997808112963B
:101BF0002C911297822B8083E7ECF0E03197F1F77C
:101C000000C0000013968C91982381E009F480E0D5
:101C1000DF91CF9108951696ED91FC911797208151
:101C2000822380831A96ED91FC911B9725CFFC01AE
:101C3000A085B1859C918281809589238C93848530
:101C4000882331F0A481B5818C919281892B8C936A
:101C500087EC90E00197F1F700C00000A285B38502
:101C60009C918381809589238C938485882331F08E
:101C7000A681B7818C919381892B8C9387EC90E01E
:101C80000197F1F700C000000895CF93DF93EC01B6
:101C9000EA85FB8590818B818095892380838C8563
:101CA000882331F0EE81FF8180819B81892B8083A5
:101CB000E885F98590818A818095892380838C8548
:101CC000882331F0EC81FD8180819A81892B80838A
:101CD00087EC90E00197F1F700C00000EE81FF81F2
:101CE00090818B81809589238083EA85FB85808123
:101CF0009B81892B808387EC90E00197F1F700C0EE
:101D00000000EC81FD8190818A8180958923808308
:101D1000E885F98580819A81892B808387EC90E022
:101D20000197F1F700C00000660FCE010E94220D5E
:101D30008D87DF91CF9108957F928F929F92AF927E
:101D4000BF92CF92DF92EF92FF920F931F93CF93A8
:101D5000DF9300D000D000D0CDB7DEB7DC015096C5
:101D60002C91222309F49AC08B016C01FB01848120
:101D70009581F12CE12C24E030E05901A81AB90A30
:101D8000EA14FB0408F451C05601F6E9AF0EB11C89
:101D9000F12CE12CF60181899289E816F90608F008
:101DA0007DC0D80114962D913C911597E216F3064B
:101DB00008F070C08D919C91009709F46BC08E0D56
:101DC0009F1DFC0180818F77E216F30608F064C046
:101DD000D8012D913C912115310509F45DC02E0DDE
:101DE0003F1DF90160816078762EE82FF0E0E85918
:101DF000FF4FE4914501D501EC93882309F44EC0CF
:101E000064E36E0DC6010E94450EBFEFAB1ABB0A1C
:101E1000F40160816729C6010E94220DC6010E945B
:101E2000170EFFEFEF1AFF0AB5CF1A8219821C8234
:101E30001B821E821D8241E050E061E471E0CE0110
:101E400001960E94010DD80114964D915C91159751
:101E50006D917C91CE0101960E94D50C811104C038
:101E6000CE0101960E94930C69817A8161157105FA
:101E700069F04D815E81C8010E94010DCE0101967D
:101E80000E94A50CBFEFEB1AFB0A7ACFC8010E9493
:101E9000930CF4CF80E097CF60E0A5CF26960FB6E5
:101EA000F894DEBF0FBECDBFDF91CF911F910F9190
:101EB000FF90EF90DF90CF90BF90AF909F908F906A
:101EC0007F90089585ED8093BC008091710390917F
:101ED0007203A0917303B09174030796A11DB11D05
:101EE00023E0B695A795979587952A95D1F72091E8
:101EF000BC0024FD03C010926F030895409171034C
:101F0000509172036091730370917403452B462BBB
:101F1000472B69F30097A105B10541F025E32A9508
:101F2000F1F700000197A109B109E1CF8091700399
:101F30000C949608CF92DF92FF920F931F93CF934A
:101F4000DF93EC012FB7F894809117039091180359
:101F5000A0911903B0911A032FBF49855A856B854B
:101F60007C8584179507A607B70720F419861A867B
:101F70001B861C862D85211116C049855A856B85C7
:101F80007C85841B950BA60BB70B803D9740A10564
:101F9000B10548F481E0DF91CF911F910F91FF903F
:101FA000DF90CF9008951D862FB7F8948091170386
:101FB00090911803A0911903B0911A032FBF89873C
:101FC0009A87AB87BC871C821B821A82198218826F
:101FD00061E08E810E9408036AEF70E080E090E08B
:101FE0000E94AC0361E08E810E94360360E08E8126
:101FF0000E94080364E170E080E090E00E94AC037E
:10200000F89461E08E810E9408038BE990E00197CB
:10201000F1F760E08E810E943603F12C81E010E040
:1020200000E0C82ED12C8E810E94DF028C159D0508
:1020300019F40F5F0F3FB9F78E810E94DF020F3F47
:10204000B9F0143090F010FD10C0EF2DE695E69534
:10205000E695EC0FFD2FF11D9081990F9083288557
:10206000201710F491609083F3941F5F1535C1F62B
:10207000789487E28F1590F44C8128818981280F0C
:102080003327331F8A81280F311D8B81820F932FB5
:10209000911D99274817190609F47CCF80E07BCF62
:1020A0009F92AF92BF92CF92DF92EF92FF920F93E7
:1020B0001F93CF93DF93C82ED12CE601CA5CDB4F70
:1020C000FE01ED57FF4F90819F3709F49DC0963078
:1020D00061F490918D02992341F06630710529F0E9
:1020E00010928D029FEF909300017B01182F0EEF4D
:1020F000080F0231F8F464307105E1F0F601EA5896
:10210000FD4FE081EC30B0F485E0E89FF001112450
:10211000E95DFA4FE0818E2F90E0FC01EE0FFF1F8A
:10212000E80FF91FEE5FFA4F808186FF03C0812F11
:102130000E941B0C42EF942E910E35E0391558F099
:1021400061E070E082E0E816F10411F070E060E018
:10215000892D0E94320A0231C8F4E12FE695E695F6
:10216000E695F0E0EF5EFC4F2081312F377081E083
:1021700090E001C0880F3A95EAF7E114F10421F0EC
:102180003BE0E316F10401F5822B80835601AA0C93
:10219000BB1CF501E353FB4F118210828CE0E81663
:1021A000F10408F0C9C0F701E852FF4E0C94242452
:1021B000F8102511E7103C115B119C1190119C1136
:1021C0009C119C110411101180958223DECF35E003
:1021D0003915D0F0023120F460E0812F0E943603DF
:1021E000CD57DF4F88818F3779F082E088830CC02C
:1021F000023150F460E0812F0E943603CD57DF4F4B
:1022000088818F3709F01882DF91CF911F910F914C
:10221000FF90EF90DF90CF90BF90AF909F90089588
:10222000023190F762E0812F0E943603CD57DF4FD5
:1022300088818F3711F08BE08883F501E353FB4FE2
:1022400081E090E091838083DFCF0231E8F6FE01E8
:10225000ED57FF4F8081833021F460E0812F0E9491
:10226000080361E0812F0E943603CD57DF4F88813C
:102270008F3751F281E0BACF133049F08BEF810FE5
:10228000823028F087EF810F833008F0BDCF61E006
:10229000812F0E94360361E0812F0E94360360E0A7
:1022A000812F0E940803CD57DF4F88818F3709F4B3
:1022B000ABCF83E09BCF023108F0A6CFCD57DF4FE5
:1022C00088818F3711F084E08883F601EA58FD4F4A
:1022D000E081EF3F99F085E0E89FF0011124E95D8E
:1022E000FA4FE0818E2F90E0FC01EE0FFF1FE80F08
:1022F000F91FEE5FFA4F808186FD86CF4FEF5FEFCB
:102300006FEF7FEF812FDF91CF911F910F91FF90A2
:10231000EF90DF90CF90BF90AF909F900C94570CB0
:102320001251123008F070CFCD57DF4F88818F37B0
:1023300009F46ACF86E05ACF83E491E0DF91CF9130
:102340001F910F91FF90EF90DF90CF90BF90AF90D3
:102350009F900C944B0C0F931F93CF93DF9381E0CE
:1023600080938E0280918D02882329F010928D0235
:102370008FEF8093000110921403109211031092BA
:102380008A02109215031092120310928B0210927F
:1023900016031092130310928C0206E712E0C0E0BD
:1023A000DFEF82EF8C0F62E070E0863030F08EEF6E
:1023B0008C0F823128F461E070E08C2F0E94501065
:1023C000F801D1938F01CF5FC43159F710924403C4
:1023D00010924303109275021092740210928E02B2
:1023E000DF91CF911F910F9108954F925F926F925D
:1023F0007F928F929F92AF92BF92FF920F931F9303
:10240000CF93DF93F82E8B01D42FC22F6F3F760727
:1024100009F490C081E080937503F09297031092C5
:1024200076031092980386EF94E00E94000A8C2FA6
:102430000E94B708809172029091730282309105D8
:1024400038F0880F991F880F991F05970197F1F7AA
:102450000E9487034B015C0180916F0381116CC066
:10246000CD2FD13208F0C0E281E080936F038093DA
:102470006E039FEF90936D0310926C039C0F9093EB
:102480006B0380934A0390914A038F2D880F892B09
:1024900080934A0380914903813009F0A1C01092D2
:1024A00049030E9487034B015C0180914A0380939A
:1024B000BB008091710390917203A0917303B0915E
:1024C0007403892B8A2B8B2BA1F00E9487034090E9
:1024D00071035090720360907303709074036819D5
:1024E00079098A099B09461657066806790608F491
:1024F00044C08091BC0083FDD8CF85EC8093BC00A4
:102500000E9487034B015C0180916F03813009F4C5
:1025100069C080916C038C1710F4C0916C03EBE4DC
:10252000F3E0AFE8B2E080E08C1761F191919D9308
:102530008F5FFACF00E08CCF80917103909172038E
:10254000A0917303B0917403892B8A2B8B2B09F410
:1025500083CF0E9487034090710350907203609074
:10256000730370907403681979098A099B094616E8
:1025700057066806790608F06FCF809170030E94B5
:102580009608C0E01092B002C093AF022D2F30E049
:102590008C2F90E0281739070CF046C084E591E0B5
:1025A0000E944B0CF09232020093330202E312E0DD
:1025B000AD2EB12CC801825392408A159B050CF0B8
:1025C00041C00F5F1F4F9091AF028091B0029817EA
:1025D000C9F186EF94E00E94B909F8018183EACF3E
:1025E00085EE8CCF8091710390917203A09173035B
:1025F000B0917403892B8A2B8B2B09F485CF0E9411
:102600008703409071035090720360907303709041
:102610007403681979098A099B09461657066806E2
:10262000790608F071CFA9CF821793070CF0BACFC3
:1026300081E791E00E944B0CD091AF028091B002F3
:10264000D81BB0CFDE5F6D2F70E042E352E087E72A
:10265000DF91CF911F910F91FF90BF90AF909F900E
:102660008F907F906F905F904F900C948B074F925C
:102670005F926F927F928F929F92AF92BF92CF9212
:10268000DF92EF92FF920F931F93CF93DF93CDB71B
:10269000DEB7C35CD1090FB6F894DEBF0FBECDBF65
:1026A000F82EE62E8A01DA012C9130E050E040E06D
:1026B00019A26E01B1E2CB0ED11CEAE04E2E512CD4
:1026C000612C712CCA01B901A30192010E94C5229B
:1026D000605DF60162936F012115310541055105D9
:1026E00089F7309761F001900020E9F73197AF0149
:1026F0004C195D09B60189E993E00E94A90142E005
:1027000050E06DE871E089E993E00E94A901F9E6E3
:10271000FF1609F42BC6FF1508F45EC020E3F2167D
:1027200009F4A8C22F1500F138E2F31609F496C097
:1027300049E2F41609F413C1CD53DF4F0FB6F894F4
:10274000DEBF0FBECDBFDF91CF911F910F91FF90E4
:10275000EF90DF90CF90BF90AF909F908F907F9041
:102760006F905F904F90089562E3F61609F47FC36F
:10277000F61608F4CCC283E3F812DECFD8016C91D0
:1027800011961C918FEF9FEF9D838C83809126057E
:102790008C3008F0CBC391E0980F90932605898385
:1027A00090E0FC01EE0FFF1FE80FF91FEE5FFA4FFC
:1027B00088EB9BE09283818370E020E639E040E281
:1027C00052E0CE0101960E946404612F70E0CE01B8
:1027D00001960E94DF03B0CF90E7F91609F4C1C457
:1027E0009F1540F1ADE6FA1609F47EC5BFE6FB166B
:1027F00009F419C5EBE6FE129FCF80EF0E94460157
:102800008CE60E9446011EEF84EF810F863008F0AF
:1028100046C582E00E9446018AE00E9446018DEF93
:10282000810F823008F43EC589EF810F833008F0B4
:102830003FC538C5F8E7FF1609F453C42AE7F21676
:1028400009F4D7C436E7F31277CFF801918195FFE9
:1028500070C380E991E00E944B0C6ECFD801FC90D0
:1028600011968C91FF829BE0988796E0998791E082
:102870009E87811142C0CE0101960E949A0F882343
:1028800039F088858B3049F018F08551823060F03E
:1028900060E070E080EC9FE729C06B8170E090E021
:1028A00080E00E94612122C01B81612F6F7770E060
:1028B00090E080E00E94632120E030E040E853E4B3
:1028C0000E949E214B015C016C8170E090E080E0F1
:1028D0000E946321A50194010E94F72220E030E0CC
:1028E00040E251E40E94632317FD90580E94D523D3
:1028F000B62E6B2D70E08F2DFFC18130D1F7CE0148
:1029000001960E949A0F882319F288858B3029F14D
:1029100008F4BECF8551823008F0BACF698170E0EB
:1029200090E080E00E94612120E030E040E853E444
:102930000E949E214B015C016A8170E090E080E082
:102940000E946321A50194010E94F72220E030E05B
:1029500040E251E40E946323C9CF69819FCFF8010F
:10296000C080D180A280B12CC854DF4F1982188258
:10297000C85BD040C654DF4F19821882CA5BD04072
:10298000C454DF4F19821882CC5BD04050E040E045
:102990006FE871E0CE0188549F4F0E94010D4801FD
:1029A000F3E08F0E911C22E0A20EB11CCE01019625
:1029B0007C01C401801B910BA816B9060CF43FC022
:1029C000D4018D914D01C254DF4F19821882CE5B24
:1029D000D040C054DF4F19821882C05CD040CE5323
:1029E000DF4F19821882C25CD0404AE0B70190E004
:1029F0000E943721F70101900020E9F73197AF01DC
:102A00004E195F09B701CE0182549F4F0E94010DFC
:102A1000CE53DF4F48815981C25CD040C254DF4F52
:102A200068817981CE5BD040CE0188549F4F0E944F
:102A3000D50CCE0182549F4F0E94A50CBACF81E0E5
:102A40008D87B4E0CB1205C0E5E0DE1202C077E06E
:102A5000D72ED982CA828D2D90E0FC01E65EFE4F12
:102A6000E491EB832C2D30E0F901E65EFE4F4491BA
:102A70004C838A5F9E4FFC01849190E0880F991FE0
:102A8000FC01EE50FF4F659174917E836D83FC01D4
:102A9000E851FF4F859194919A878987F901EA5F00
:102AA000FE4F849190E0880F991FFC01EE50FF4F7C
:102AB0002591349138872F83FC01E851FF4FA59170
:102AC000B491BC87AB878FEF8E87EC9140954E23F6
:102AD0004C938D85882331F0EF81F88580819C812E
:102AE000892B8083E985FA8590818B818095892364
:102AF00080838D85882331F0ED81FE8180819B81EB
:102B0000892B808387EC90E00197F1F700C00000EB
:102B100084E090E09B8B8A8B188A1F86C956DF4F12
:102B20001882C759D040C855DF4F1882C85AD040C4
:102B3000C856DF4F1882C859D040C755DF4F18829A
:102B4000C95AD040C756DF4F1882C959D040C65520
:102B5000DF4F1882CA5AD040C656DF4F1882CA5972
:102B6000D040C555DF4F1882CB5AD04064E3C7012F
:102B70000E94450EC7010E94170E8E8591E08111BB
:102B800090E0998B81111DC08E0109561F4FD12CE9
:102B9000C12C8A899B89C816D90698F464E36C0D08
:102BA000C7010E94450ED8011D928D0160E0C7014A
:102BB0000E94220DC7010E94170EBFEFCB1ADB0A3D
:102BC000E8CF89898823F9F08E0108551F4FD12C51
:102BD000C12C8A899B89C816D906A8F464E26C0DB9
:102BE000C7010E94450EF80161918F016160319724
:102BF0006083C7010E94220DC7010E94170EFFEFDC
:102C0000CF1ADF0AE6CFC254DF4F19821882CE5B9B
:102C1000D040C054DF4F19821882C05CD040CE53E0
:102C2000DF4F19821882C25CD040C854DF4F6881E0
:102C30007981C85BD0406115710559F0C454DF4FEC
:102C400048815981CC5BD040CE0182549F4F0E9475
:102C5000010DBE0162547F4FC7010E949C0ECE0140
:102C600082549F4F0E94A50CCE0188549F4F0E9412
:102C7000A50C62CDD801DC9011962C91119713967A
:102C8000EC90B0E8EB9EC0011124F801E280E80E60
:102C9000F92EF11C8581F0E88F9FC0011124D80125
:102CA00014960C91080F192F111DD982211127C0DC
:102CB00088EE93E0089FB001099F700D189F700D7A
:102CC0001124072E000C880B990B0E94632120E031
:102CD00030E040E05FE30E949E210E94D5239B01EB
:102CE000AC01B701CE0101960E941406B7018D2DEB
:102CF0000E942B07B8018D2D0E942B071DCD21307E
:102D0000A9F79801012E000C440B550BEACFF801EE
:102D1000B080E180D2808380C4801A821986188AAC
:102D2000198A1A8A1B8A81E08F878C871D8692E018
:102D30009E8789838CE090E09E838D830E942A2465
:102D40009B878A87009709F46FC02CE0DC011D92F5
:102D50002A95E9F784E090E09C838B830B2D10E0AB
:102D600018870F838A81882341F061E08B2D0E94B0
:102D7000360360E08B2D0E940803F801EA5FFE4FE6
:102D8000E491F0E0EE0FFF1FEE50FF4F859194911C
:102D90009D8B8C8BF801E65EFE4FE491EE8B8F816C
:102DA000988597FD07C061E00E94360360E08F813F
:102DB0000E94080381E08A834D815E8170E060E0BB
:102DC0008A859B850E941526912CB12CA12CBA2CAA
:102DD000A92C982C8824AD288C288FEF8E0D843058
:102DE00040F5EE2DE150FF0BBF018B819C81E81770
:102DF000F90730F4A5019401CE0101960E94E30485
:102E00008A859B85892B21F0CE0101960E943F0582
:102E10008A859B850E94C6248F81988597FD8CCCDE
:102E200060E00E94360388CC1E821D821C821B82B9
:102E300095CFE110EDCF10E000E08B819C81081769
:102E4000190738F4A5019401B801CE0101960E943A
:102E5000E3048A859B85892B21F0CE0101960E948F
:102E60003F050F5F1F4F0430110539F7D1CFD8014F
:102E7000FC9011961C9161E08F2D0E94360360E05A
:102E8000812F0E943603F11204C061E08F2D0E9451
:102E9000360360E08F2D0E94080383E090E00197E5
:102EA000F1F761E08F2D0E94080383E290E0019723
:102EB000F1F760E08F2D0E940803F11204C060E07A
:102EC0008F2D0E9436030E9487034B015C01812FE6
:102ED0000E94DF02892B59F40E948703681979093F
:102EE0008A099B0961327E448105910580F30E9425
:102EF00087034B015C01812F0E94DF02892B59F06F
:102F00000E948703681979098A099B0961327E4406
:102F10008105910580F30E948703CB0188199909E7
:102F200068E370E00E9410247727E5CC8FEF898357
:102F300043CCD801808196FB332730F921E0232749
:102F400098719830B1F1F8F49111F6CB91E090932B
:102F5000750380939703109276031092980372E0A2
:102F6000F72EFE14F0F4F801EF0DF11D6181679565
:102F7000662767958081680F86EF94E00E94000ABB
:102F8000F394F394EECF903191F1983109F0D4CBD2
:102F90002091000112160CF45FC08FEF80930001A6
:102FA000CBCB81E00E94B70883E191E00197F1F774
:102FB000C3CB92814381F6E0EF1212C030E8439F09
:102FC000B0011124690F711D15964C911597479505
:102FD0004427479514969C91490F0E94F511ACCB5C
:102FE000479544274795490F6FEF7FEFF6CFE09164
:102FF0000001E7301CF080EB91E02DCC12963C9163
:10300000129713969C91B6E0EB121FC0F0E89F9FB9
:10301000A0011124430F511DD80115969C911597BD
:1030200097959927979514963C91930FEF5FE093AE
:103030000001B5E0EB02F0011124E55EFC4F808356
:10304000528341839383248377CB979599279795D0
:10305000930F4FEF5FEFEACF90E0622F022E000C4C
:10306000770B35E0492F50E06417750764F0349F03
:10307000F001359FF00D1124E55EFC4F40814817AB
:1030800019F09F5FEFCF90E085E0492F50E0641783
:1030900075071CF19830F8F4FA0131968E9FD00133
:1030A0008F9FB00D1124A55EBC4F3C91849FF00111
:1030B000859FF00D1124E55EFC4F308311964D91F4
:1030C0005C9112975283418313963C9113973383FB
:1030D00014963C9134839F5FD8CF215020930001F8
:1030E0002BCBE1E0EE1590F4D80111968C91B0E86D
:1030F0008B9F90011124F8018081820F932F911DE5
:10310000009721F0909373028093720280918D0258
:10311000811112CB10E08EEE810F823028F466E030
:1031200070E0812F0E9450101F5F1431A1F781E0E1
:1031300080938D021092B0021092AF02109276032B
:10314000109298030E94780887EA99E09093D3023E
:103150008093D20288EA99E09093D7028093D602B6
:10316000EBCAF4E0FE1508F0E7CAD801FC908EEF38
:103170008F0D823108F0E0CA1196EC9011971296EB
:10318000CC9012971396DC90139714961C91EF2D08
:10319000F0E0EA58FD4FE081EC30B0F4B5E0EB9F91
:1031A000F0011124E95DFA4FE0818E2F90E0FC01DF
:1031B000EE0FFF1FE80FF91FEE5FFA4F808186FFC9
:1031C00003C08F2D0E941B0CE0E81E9FA00111245C
:1031D0004D0D511DF0E8CF9EB00111246E0D711DF3
:1031E0008F2D0E94570C64E070E08F2D0E945010CC
:1031F000A3CA21E02E1508F09FCAD80111968C9120
:10320000B0E88B9F90011124F8018081820F932FE9
:10321000911D009729F090930201809301018CCABF
:1032200081E090E0F8CFF1E0FE1508F085CAD80102
:1032300011966C9170E0B2E0EB16B1F0F80182816A
:10324000F0E88F9FC0011124682B792B23E0E21650
:1032500059F0D80113968C9190E090E4899F902DBD
:1032600088271124682B792BF80180810E940B0B91
:1032700063CA123108F0C8CA80E00E94460181E0AA
:103280000E9446018BE00E94460181E00E944601B7
:1032900081E00E94460181E00E944601B5CA1130DA
:1032A00009F0BDCA83E00E94460188E00E94460101
:1032B000123130F484E00E9446018EE00E94460103
:1032C00080EF810F823030F486E00E94460181E079
:1032D0000E9446018FE70E9446011F5F123149F6A6
:1032E00087EF0E94460128CAEE2009F425CAD801BA
:1032F0000C9180EF0E9446018EE60E944601802FCD
:103300000E944601043160F710E0F801E754FB4FDA
:1033100080810E944601000F111FF801E353FB4F0B
:103320007F0180818F770E944601D7018D919C910A
:103330009C012078232B39F0880F892F881F990B47
:103340008F770E944601F801E353FB4F8081918102
:103350009C012227307C232B19F2990F880B990F9F
:10336000982F881F8F770E944601BACF80EF0E9466
:1033700046018AE60E94460112EF8FE7163008F4F4
:10338000812F0E9446011F5F1630B9F7A9CF1F9207
:103390000F920FB60F9211242F933F934F935F9389
:1033A0006F937F938F939F93AF93BF93EF93FF930D
:1033B00089E993E00E942702FF91EF91BF91AF91BD
:1033C0009F918F917F916F915F914F913F912F913D
:1033D0000F900FBE0F901F9018951F920F920FB66F
:1033E0000F9211242F938F939F93EF93FF93E0916C
:1033F000A903F091AA038081E091AF03F091B0039B
:1034000082FD1BC090818091B2038F5F8F732091EA
:10341000B303821741F0E091B203F0E0E756FC4FAE
:10342000958F8093B203FF91EF919F918F912F9190
:103430000F900FBE0F901F9018958081F4CF1F92B0
:103440000F920FB60F9211242F933F938F939F9358
:10345000AF93BF938091170390911803A091190324
:10346000B0911A033091FC0223E0230F2D3758F559
:103470000196A11DB11D2093FC0280931703909328
:103480001803A0931903B0931A038091FD02909141
:10349000FE02A091FF02B09100030196A11DB11D93
:1034A0008093FD029093FE02A093FF02B09300036D
:1034B000BF91AF919F918F913F912F910F900FBE30
:1034C0000F901F90189526E8230F0296A11DB11D9D
:1034D000D2CF1F920F920FB60F9211240F900FBEF2
:1034E0000F901F9018951F920F920FB60F921124F4
:1034F0002F933F934F935F936F937F938F939F93FC
:10350000AF93BF93CF93DF93EF93FF938091F90233
:10351000C0912605D0E087FF24C01092850010924C
:1035200084008091F9028F5F8093F9028091F90203
:10353000082E000C990B8C179D0724F48091F9023A
:103540008C30C4F180918400909185000496803481
:103550009C4908F47AC0809184009091850004967B
:1035600076C08091F902082E000C990B8C179D07EC
:10357000C4F6E091F9028E2FEE0F990BFC01EE0FCD
:10358000FF1FE80FF91FEE5FFA4F808186FFC9CF5A
:10359000E091F9028E2FEE0F990BFC01EE0FFF1F49
:1035A000E80FF91FEE5FFA4F808160E08F730E9491
:1035B0000803B7CF2091840030918500E091F90293
:1035C0008E2FEE0F990BFC01EE0FFF1FE80FF91F76
:1035D000EE5FFA4F81819281820F931F9093890051
:1035E00080938800E091F9028E2FEE0F990BFC0179
:1035F000EE0FFF1FE80FF91FEE5FFA4F808186FF85
:1036000011C0E091F9028E2FEE0F990BFC01EE0F25
:10361000FF1FE80FF91FEE5FFA4F808161E08F73A3
:103620000E940803FF91EF91DF91CF91BF91AF917D
:103630009F918F917F916F915F914F913F912F91CA
:103640000F900FBE0F901F90189580E49CE9909307
:103650008900809388008FEF8093F902E3CF1F9257
:103660000F920FB60F9211242F933F934F935F93B6
:103670006F937F938F939F93AF93BF93EF93FF933A
:103680008091B900887F803609F44AC0F0F588320D
:1036900009F4A7C018F5803109F49BC0B8F4882359
:1036A00009F4F9C0883009F494C0FF91EF91BF91FB
:1036B000AF919F918F917F916F915F914F913F91CA
:1036C0002F910F900FBE0F901F901895883109F41D
:1036D00088C0803251F780936D0314C0803409F4A0
:1036E0009DC040F48033B9F38833F9F680936D03BD
:1036F00085ECB0C0803509F485C0883509F496C0E2
:10370000883499F60E94620FD0CF883909F48CC0B2
:1037100038F5883729F050F4883611F0803729F6CB
:1037200083E080936F031092F80257C0883809F441
:103730007BC0803919F0803809F0B7CF8091F8024A
:10374000803208F071C0E091F80281E08E0F809322
:10375000F8028091BB00F0E0E852FD4F80833DC04D
:10376000803B39F0E0F4803A09F479C0883A09F0F6
:103770009CCF84E080936F031092D5021092D40204
:10378000E091D202F091D30209958091D402811187
:103790000FC081E08093D4021092B20209C0803C35
:1037A00009F4A6CF883C09F4A3CF883B09F07DCF6C
:1037B000E091D50281E08E0F8093D502F0E0EE54C7
:1037C000FD4F80818093BB009091D5028091D402FF
:1037D00029C080914A038093BB0085EC8093BC0094
:1037E00064CF90916C0380916B03981758F5E0912A
:1037F0006C0381E08E0F80936C03F0E0E55BFC4F7F
:103800008081E9CFE0916C0381E08E0F80936C039F
:103810008091BB00F0E0E55BFC4F808390916C03EE
:1038200080916B039817C8F285E8D8CFE0916C03BC
:1038300081E08E0F80936C038091BB00F0E0E55B2C
:10384000FC4F808380916E0381115CCF81E0809377
:10385000490384EA8093BC0010926F0326CF85EC65
:103860008093BC0010926F038091F802803230F494
:10387000E091F802F0E0E852FD4F10826091F8020A
:1038800070E0E091D602F091D70288ED92E00995C0
:103890001092F8020ACF10926D0334CF10929C035D
:1038A00010929B0348EE53E060E070E040939D036C
:1038B00050939E0360939F037093A0038DE091E06B
:1038C00090939A038093990385EC90E09093A603DC
:1038D0008093A50384EC90E09093A8038093A703C2
:1038E00080EC90E09093AA038093A90381EC90E090
:1038F0009093AC038093AB0382EC90E09093AE0383
:103900008093AD0386EC90E09093B0038093AF0377
:103910001092B2031092B3031092B4031092B50345
:1039200086E394E0109277041092760490937A04E0
:103930008093790420E430E030937C0420937B046E
:1039400010927D0410927E041092800410927F04E5
:1039500010928104109283041092820410928504C4
:1039600010928404109287041092860410928904A5
:103970001092880410928B0410928A0410928D0485
:1039800010928C0410928F0410928E041092950461
:103990001092940410929704109296041092990435
:1039A0001092980410929B0410929A041092A90409
:1039B0001092A804109278041092B6041092B804E1
:1039C0001092B7041092F5042CEC30E030939D0473
:1039D00020939C0426ED30E030939F0420939E04B6
:1039E00020EE30E03093A1042093A0042AEE30E0D2
:1039F0003093A3042093A20424EF30E03093A50475
:103A00002093A4042EEF30E03093A7042093A60463
:103A100028E031E03093AB042093AA0429E031E0A0
:103A20003093AD042093AC042CE438E03093AF0421
:103A30002093AE04909391048093900422EA31E0A5
:103A40003093B1042093B004909393048093920434
:103A500084E191E09093B3048093B2041092F9044E
:103A60001092F8044093FA045093FB046093FC0412
:103A70007093FD048FE191E09093F7048093F60436
:103A8000E7E2F5E02FEF3FEF4FEF68EB7BE03483A9
:103A90002383809126058C30B8F491E0980F9093A1
:103AA0002605808390E0DC01AA0FBB1FA80FB91F79
:103AB000AE5FBA4F12967C936E931197359685E060
:103AC000E336F80721F708954083F8CF789484B55A
:103AD000826084BD84B5816084BD85B5826085BD0A
:103AE00085B5816085BD80916E00816080936E0098
:103AF000109281008091810082608093810080918A
:103B0000810081608093810080918000816080933A
:103B100080008091B10084608093B1008091B000FA
:103B200081608093B00080917A00846080937A00F5
:103B300080917A00826080937A0080917A0081601F
:103B400080937A0080917A00806880937A00109246
:103B5000C10085E18093B6048091B7049091B804C8
:103B60000E94C624C091B604D0E0CE0101960E9406
:103B70002A249093B8048093B704FC01EC0FFD1F36
:103B8000108212E0DC011C9325E011962C93AE010B
:103B90004250510961E172E002960E9423268BE0B7
:103BA0009BE090930C0380930B038FE59AE0909336
:103BB0000A038093090382E39AE0909308038093B9
:103BC000070380EF9BE0909306038093050380E555
:103BD00090E1909304038093030389E99BE0909321
:103BE00002038093010387E393E190930E03809394
:103BF0000D038BEA91E19093100380930F03E09102
:103C0000A903F091AA031083E091A903F091AA03FC
:103C10001082E091A503F091A6031082E091A70322
:103C2000F091A80380E180831092B103E091AD038D
:103C3000F091AE0386E08083E091AB03F091AC039A
:103C4000808180618083E091AB03F091AC0380813F
:103C500088608083E091AB03F091AC038081806841
:103C60008083E091AB03F091AC0380818F7D8083F2
:103C70008091F50481114FC061E08DE00E94360310
:103C800062ED70E080E090E00E94AC0361E08DE0C6
:103C90000E94080368E270E080E090E00E94AC03BC
:103CA00060E08DE00E94080362ED70E080E090E04B
:103CB0000E94AC0361E08DE00E94080368E270E0BE
:103CC00080E090E00E94AC0360E08DE00E94080379
:103CD0006AEF70E080E090E00E94AC03C5E062ED26
:103CE00070E080E090E00E94AC0361E08DE00E9413
:103CF000080368E270E080E090E00E94AC0360E0BE
:103D00008DE00E940803C15051F76DE770E080E03C
:103D100090E00E94AC0389E993E09093B50480930E
:103D2000B404909377048093760486E794E00E942D
:103D30001C0186E394E00E94D8070E94AB1125E0A5
:103D4000D22EC0E0D0E0CC24C39402E010E0EE24F8
:103D5000E394F12C80911403882349F069B1809198
:103D6000110368236C7F40E080E00E94AE0B8091DD
:103D70001503882379F063B186B16F73B0E48B9F2C
:103D8000C0011124682B80911203682340E081E078
:103D90000E94AE0B80911603882359F066B1809182
:103DA00013038F7066956695682340E082E00E9459
:103DB000AE0B8091B4049091B504DC01ED91FC91BF
:103DC0000084F185E02D0995892B09F4CEC18091FD
:103DD000B4049091B504DC01ED91FC910284F3856B
:103DE000E02D09959C018F3F980719F3982F80913A
:103DF0008104882309F492C0973F09F07EC0109295
:103E00008104A0917904B0917A046C916137C1F179
:103E1000693709F05CC0E091AE04F091AF043097CF
:103E200041F280918204909183048330910560F483
:103E300030E020E050E040E070E060E080919004ED
:103E4000909191040995B5CFBD016D5F7F4F0397A8
:103E50000E948301BC016D5F7F4F80E00E9453018F
:103E6000E0917904F0917A049F012D5F3F4F4281E8
:103E700050E0618170E0E091AE04F091AF04DECFDC
:103E80008091AA049091AB04892B09F492CFBD01D3
:103E90006F5F7F4F809182049091830401970E940D
:103EA0008301BC016F5F7F4F80E00E9453016091EE
:103EB000790470917A046F5F7F4FE091AA04F091CA
:103EC000AB048091960490919704099572CFE0918C
:103ED000AC04F091AD04309709F46BCF9D012F5FD6
:103EE0003F4F409182045091830441505109809189
:103EF00098049091990409955CCF60918204709127
:103F00008304822F0E945301809182049091830444
:103F1000019690938304809382044BCF60917F0439
:103F2000709180046115710509F4B1C027FDAFC01F
:103F3000615071097093800460937F04822F0E9406
:103F4000530180917F0490918004892B09F031CF37
:103F500080917D04882309F42CCF803D09F483C02F
:103F600040F4803949F1803C09F469C010927D0425
:103F700020CF843FE1F1853F09F44DC0803EB1F789
:103F8000E0919C04F0919D04309781F3A091790415
:103F9000B0917A044C9120E8429FC00111241196FF
:103FA0004C91480F592F511D60917E0480918404DB
:103FB000909185040995DACFE0919E04F0919F04D9
:103FC0003097A1F2A0917904B0917A044C9120E845
:103FD000429FC001112411964C91480F592F511D39
:103FE00060917E048091860490918704E3CFE091F4
:103FF000A404F091A504309709F4B8CFA0917904F6
:10400000B0917A044C9150E011966C9180918C049F
:1040100090918D04CFCFE091A604F091A704309742
:1040200009F4A4CFA0917904B0917A044C9150E0A6
:1040300011966C9180918E0490918F04BBCFE0918A
:10404000A004F091A104309709F490CFA0917904D5
:10405000B0917A044C9150E060917E048091880484
:1040600090918904A7CFE091A204F091A304309726
:1040700009F47CCFA0917904B0917A044C9150E07E
:1040800060917E0480918A0490918B0493CF903F3D
:1040900030F4822F8F7080937E04922F907F903F18
:1040A000F1F190F4903CB1F150F4903909F081CEE7
:1040B0001093800400937F0490937D047ACE903D0A
:1040C00049F1903EA9F375CE993F09F442C028F416
:1040D0008CE0890F823060F36CCE9F3F09F069CE8F
:1040E0001092800410927F0410927D0410927E043E
:1040F00090E080E020917B0430917C04821793074C
:10410000A8F4E0917904F0917A04E80FF91F108285
:104110000196F0CFF0928004E0927F04CDCFC09260
:104120008104109283041092820443CE1092810481
:104130001092830410928204E091B204F091B304CF
:1041400080919A0490919B04309709F432CE09959E
:1041500030CEE091B004F091B104309709F429CE4B
:104160008091920490919304F2CF8FB7F89480904D
:10417000170390901803A0901903B0901A038FBFF3
:104180008091450390914603A0914703B091480365
:10419000409101015091020170E060E0881A990A93
:1041A000AA0ABB0A481559056A057B0508F054C0E0
:1041B000840F951FA61FB71F809345039093460356
:1041C000A0934703B093480386E3882E84E0982E9B
:1041D00092EFB92E85E08B15C8F0F401ED57FF4F33
:1041E0008081823099F480914303909144030B2C99
:1041F00002C0959587950A94E2F780FF07C08B2D42
:104200000E947203BC018B2D0E942B07B394AFEF69
:104210008A1A9A0AB6E0BB12DDCF8091000187FDB1
:104220001BC0B12C2B2D30E080910001082E000C1A
:10423000990B8217930784F0D29EF001D39EF00D64
:104240001124E55EFC4F618172812481438180816C
:104250000E94F511B394E6CF209709F47BCD0E941C
:104260001302882309F476CD0E94000073CDBB278A
:10427000FB015527AA27880F991FAA1FA41710F022
:10428000A41B83955051B9F7A05DAA3308F0A95D2E
:10429000A193009779F7B111B1931192CB010C94CE
:1042A0005121DC01FC01672F71917723E1F73297EF
:1042B00004C07C916D9370836291AE17BF07C8F301
:1042C0000895E89409C097FB3EF490958095709509
:1042D00061957F4F8F4F9F4F9923A9F0F92F96E952
:1042E000BB279395F695879577956795B795F111C7
:1042F000F8CFFAF4BB0F11F460FF1BC06F5F7F4F64
:104300008F4F9F4F16C0882311F096E911C0772375
:1043100021F09EE8872F762F05C0662371F096E87E
:10432000862F70E060E02AF09A95660F771F881F4D
:10433000DAF7880F9695879597F908950E94B1212D
:104340000C9422220E94142238F00E941B2220F09A
:10435000952311F00C940B220C94112211240C942F
:1043600056220E94332270F3959FC1F3950F50E0BF
:10437000551F629FF001729FBB27F00DB11D639F17
:10438000AA27F00DB11DAA1F649F6627B00DA11DBD
:10439000661F829F2227B00DA11D621F739FB00D63
:1043A000A11D621F839FA00D611D221F749F3327D3
:1043B000A00D611D231F849F600D211D822F762F6C
:1043C0006A2F11249F5750409AF0F1F088234AF049
:1043D000EE0FFF1FBB1F661F771F881F91505040B5
:1043E000A9F79E3F510580F00C940B220C945622A5
:1043F0005F3FE4F3983ED4F3869577956795B7953C
:10440000F795E7959F5FC1F7FE2B880F911D969555
:10441000879597F9089597F99F6780E870E060E0C5
:1044200008959FEF80EC089500240A94161617064D
:1044300018060906089500240A9412161306140695
:1044400005060895092E0394000C11F4882352F0F8
:10445000BB0F40F4BF2B11F460FF04C06F5F7F4FB0
:104460008F4F9F4F089557FD9058440F551F59F097
:104470005F3F71F04795880F97FB991F61F09F3F51
:1044800079F087950895121613061406551FF2CF7A
:104490004695F1DF08C0161617061806991FF1CFCA
:1044A00086957105610508940895E894BB276627F1
:1044B0007727CB0197F90895052E97FB1EF40094FA
:1044C0000E94732257FD07D00E94C52207FC03D02B
:1044D0004EF40C94732250954095309521953F4FA2
:1044E0004F4F5F4F089590958095709561957F4FE0
:1044F0008F4F9F4F08950E94E722A59F900DB49F74
:10450000900DA49F800D911D11240895B7FF0C9468
:104510007B220E947B22821B930B08952F923F9255
:104520004F925F926F927F928F929F92AF92BF92C3
:10453000CF92DF92EF92FF920F931F93CF93DF936F
:10454000CDB7DEB7CA1BDB0B0FB6F894DEBF0FBECC
:10455000CDBF09942A88398848885F846E847D8419
:104560008C849B84AA84B984C884DF80EE80FD801B
:104570000C811B81AA81B981CE0FD11D0FB6F89491
:10458000DEBF0FBECDBFED010895A1E21A2EAA1B1A
:10459000BB1BFD010DC0AA1FBB1FEE1FFF1FA217F3
:1045A000B307E407F50720F0A21BB30BE40BF50BF0
:1045B000661F771F881F991F1A9469F76095709579
:1045C000809590959B01AC01BD01CF010895A29FFC
:1045D000B001B39FC001A39F700D811D1124911DD7
:1045E000B29F700D811D1124911D08955058BB2755
:1045F000AA270E940E230C9422220E94142238F033
:104600000E941B2220F039F49F3F19F426F40C94E9
:1046100011220EF4E095E7FB0C940B22E92F0E9487
:10462000332258F3BA17620773078407950720F0FF
:1046300079F4A6F50C9455220EF4E0950B2EBA2FC2
:10464000A02D0B01B90190010C01CA01A001112498
:10465000FF27591B99F0593F50F4503E68F11A1644
:10466000F040A22F232F342F4427585FF3CF4695D5
:1046700037952795A795F0405395C9F77EF41F16F7
:10468000BA0B620B730B840BBAF09150A1F0FF0FC1
:10469000BB1F661F771F881FC2F70EC0BA0F621FAD
:1046A000731F841F48F4879577956795B795F7959D
:1046B0009E3F08F0B0CF9395880F08F09927EE0F32
:1046C0009795879508950E9477230C9422220E9443
:1046D0001B2258F00E94142240F029F45F3F29F079
:1046E0000C940B2251110C9456220C9411220E940E
:1046F000332268F39923B1F3552391F3951B550B9E
:10470000BB27AA2762177307840738F09F5F5F4FA4
:10471000220F331F441FAA1FA9F335D00E2E3AF0E3
:10472000E0E832D091505040E695001CCAF72BD0FB
:10473000FE2F29D0660F771F881FBB1F261737074C
:104740004807AB07B0E809F0BB0B802DBF01FF277E
:1047500093585F4F3AF09E3F510578F00C940B222E
:104760000C9456225F3FE4F3983ED4F386957795F8
:104770006795B795F7959F5FC9F7880F911D969537
:10478000879597F90895E1E0660F771F881FBB1F93
:10479000621773078407BA0720F0621B730B840B40
:1047A000BA0BEE1F88F7E09508950E943B2288F02F
:1047B0009F5798F0B92F9927B751B0F0E1F0660FE5
:1047C000771F881F991F1AF0BA95C9F714C0B13026
:1047D00091F00E945522B1E008950C945522672F64
:1047E000782F8827B85F39F0B93FCCF38695779555
:1047F0006795B395D9F73EF490958095709561953E
:104800007F4F8F4F9F4F0895991B79E004C0991FE8
:10481000961708F0961B881F7A95C9F7809508951A
:10482000AA1BBB1B51E107C0AA1FBB1FA617B707D6
:1048300010F0A61BB70B881F991F5A95A9F78095F2
:104840009095BC01CD010895EE0FFF1F0590F491E6
:10485000E02D09940F931F93CF93DF93823091053E
:1048600010F482E090E0E0916505F091660530E09B
:1048700020E0B0E0A0E0309799F42115310509F46B
:104880004AC0281B390B24303105D8F58A819B8119
:104890006115710589F1FB0193838283FE0111C0CB
:1048A000408151810281138148175907E0F0481770
:1048B000590799F4109761F012960C93129713967A
:1048C0001C933296CF01DF91CF911F910F910895E4
:1048D0000093650510936605F4CF2115310551F05D
:1048E0004217530738F0A901DB019A01BD01DF012E
:1048F000F801C1CFEF01F9CF90936605809365056C
:10490000CDCFFE01E20FF31F819391932250310925
:1049100039832883D7CF2091630530916405232BF9
:1049200041F42091050130910601309364052093F4
:10493000630520910301309104012115310541F4F3
:104940002DB73EB74091070150910801241B350B4C
:10495000E0916305F0916405E217F307A0F42E1BC4
:104960003F0B2817390778F0AC014E5F5F4F2417D3
:10497000350748F04E0F5F1F509364054093630561
:10498000819391939FCFF0E0E0E09CCFCF93DF93B2
:104990000097E9F0FC01329713821282A09165051D
:1049A000B0916605ED0130E020E01097A1F4208180
:1049B0003181820F931F2091630530916405281780
:1049C000390709F061C0F0936405E0936305DF9156
:1049D000CF910895EA01CE17DF07E8F54A815B81A0
:1049E0009E0141155105B1F7E901FB83EA83499125
:1049F0005991C40FD51FEC17FD0761F48081918197
:104A00000296840F951FE90199838883828193819F
:104A10009B838A83F0E0E0E012968D919C9113973E
:104A20000097B9F52D913C911197CD010296820F17
:104A3000931F20916305309164052817390739F6D3
:104A4000309751F51092660510926505B093640594
:104A5000A0936305BCCFD383C28340815181840F6F
:104A6000951FC817D90761F44E5F5F4F8881998100
:104A7000480F591F518340838A819B81938382838E
:104A80002115310509F0B0CFF0936605E093650577
:104A90009ECFFD01DC01C0CF13821282D7CFB0E0E0
:104AA000A0E0E5E5F5E20C9490228C01009751F42A
:104AB000CB010E942A248C01C801CDB7DEB7E0E10A
:104AC0000C94AC22FC01E60FF71F9C012250310927
:104AD000E217F30708F49DC0D901CD91DC9111973D
:104AE000C617D70798F0C530D10530F3CE0104972B
:104AF0008617970708F3C61BD70B2297C193D1934C
:104B00006D937C93CF010E94C624D6CF5B01AC1A73
:104B1000BD0A4C018C0E9D1EA0916505B0916605E5
:104B2000512C412CF12CE12C109731F5809163052B
:104B3000909164058815990509F05CC046165706E2
:104B400008F058C08091030190910401009741F44E
:104B50008DB79EB74091070150910801841B950BBA
:104B6000E817F90708F055C0F0936405E093630572
:104B7000F90171836083A0CF8D919C91119712965A
:104B80006C90129713967C901397A815B90559F558
:104B90006C0142E0C40ED11CCA14DB0420F1AC014C
:104BA0004A195B09DA011296159780F062827382C6
:104BB00051834083D9016D937C93E114F10471F02A
:104BC000D7011396FC93EE93129776CF22968C0F13
:104BD0009D1FF90191838083F301EFCFF093660568
:104BE000E093650569CF4816590608F42C017D014C
:104BF000D3019ACFCB010E942A247C01009749F06F
:104C0000AE01B8010E940C26C8010E94C62487018B
:104C100053CF10E000E050CFFB01DC0102C0019057
:104C20000D9241505040D8F70895DC0101C06D93BA
:104C300041505040E0F70895FB01DC0101900D92D6
:104C40000020E1F70895FB01DC014150504048F09D
:104C500001900D920020C9F701C01D9241505040B3
:104C6000E0F70895F894FFCFFF1300000067058078
:104C700000000000004902A901D60196020702E5E2
:104C800001F90100000000000AD3092F0AA909CC8C
:104C900009B909AA094D617820736572766F73208E
:104CA0006174746163686564002000556E6B6E6F9B
:104CB000776E2070696E206D6F6465004932433AEB
:104CC00020546F6F206D616E792062797465732056
:104CD0007265636569766564004932433A20546FB2
:104CE0006F206665772062797465732072656365ED
:104CF00069766564000D0A0031302D6269742061A7
:104D0000646472657373696E67206E6F7420737567
:104D100070706F7274656400746F6F206D616E796E
:104D20002071756572696573002F55736572732FF5
:104D300070616E392F636F64652F64696C656D7582
:104D40002F64696C6562616E2D6669726D61746154
:104D50002F6578616D706C65732F64696C65626135
:104D60006E4669726D6174612F5374616E64617215
:104D7000644669726D6174612F5374616E6461720F
:0E4D8000644669726D6174612E696E6F000089
:107E0000112484B714BE81FFF0D085E080938100F7
:107E100082E08093C00088E18093C10086E0809377
:107E2000C20080E18093C4008EE0C9D0259A86E02C
:107E300020E33CEF91E0309385002093840096BBD3
:107E4000B09BFECF1D9AA8958150A9F7CC24DD24C4
:107E500088248394B5E0AB2EA1E19A2EF3E0BF2EE7
:107E6000A2D0813461F49FD0082FAFD0023811F036
:107E7000013811F484E001C083E08DD089C08234E0
:107E800011F484E103C0853419F485E0A6D080C0E4
:107E9000853579F488D0E82EFF2485D0082F10E0AE
:107EA000102F00270E291F29000F111F8ED06801E7
:107EB0006FC0863521F484E090D080E0DECF843638
:107EC00009F040C070D06FD0082F6DD080E0C81688
:107ED00080E7D80618F4F601B7BEE895C0E0D1E017
:107EE00062D089930C17E1F7F0E0CF16F0E7DF06D8
:107EF00018F0F601B7BEE89568D007B600FCFDCFD4
:107F0000A601A0E0B1E02C9130E011968C91119780
:107F100090E0982F8827822B932B1296FA010C0160
:107F200087BEE89511244E5F5F4FF1E0A038BF0790
:107F300051F7F601A7BEE89507B600FCFDCF97BE46
:107F4000E89526C08437B1F42ED02DD0F82E2BD052
:107F50003CD0F601EF2C8F010F5F1F4F84911BD097
:107F6000EA94F801C1F70894C11CD11CFA94CF0C13
:107F7000D11C0EC0853739F428D08EE10CD085E9AC
:107F80000AD08FE07ACF813511F488E018D01DD067
:107F900080E101D065CF982F8091C00085FFFCCF94
:107FA0009093C60008958091C00087FFFCCF809118
:107FB000C00084FD01C0A8958091C6000895E0E648
:107FC000F0E098E1908380830895EDDF803219F02E
:107FD00088E0F5DFFFCF84E1DECF1F93182FE3DFCA
:107FE0001150E9F7F2DF1F91089580E0E8DFEE27F6
:047FF000FF270994CA
:027FFE00040479
:00000001FF
