:020000040000FA
:100000000C94A2000C94CA000C94CA000C94D41A4C
:100010000C94D41A0C94D41A0C94CA000C94CA00F0
:100020000C94CA000C94CA000C94CA000C94DE1AFA
:100030000C94CA000C94CA000C94CA000C94CA0018
:100040000C948A1A0C94CA000C94581A0C94321A04
:100050000C94CA000C94CA000C94CA000C94CA00F8
:100060000C949A1B0C94CA000000000000000000D1
:100070000000000000000000000000000000000080
:1000800000000000000000000082210000000002CB
:10009000390F0000004080003F065B4F666D7D0712
:1000A0007F6F00000048005300777C395E79716FE4
:1000B00076061E003800543F7367506D783E00008E
:1000C000006E0039000F0008635F7C585E7B716F23
:1000D00074021E000600545C7367506D781C0000AB
:1000E000006E0039300F00000000000024002700DF
:1000F0002A0000000000230026002900000000085C
:1001000000020100000304070000000000000000DE
:10011000010204081020408001020408102001029E
:100120000408102000000000250028002B00040413
:10013000040404040404020202020202030303038F
:100140000303B91C11241FBECFEFD8E0DEBFCDBF23
:1001500012E0A0E0B1E0EEE3FDE402C005900D92F4
:10016000A032B107D9F725E0A0E2B2E001C01D92AC
:10017000A936B207E1F710E0C2EAD0E004C0219747
:10018000FE010E948F24C13AD107C9F70E94D11DF8
:100190000C949D260C940000862FE0910703F091AB
:1001A0000803309711F0BA0109940895862FE09161
:1001B0000503F0910603309711F0BA0109940895F0
:1001C000862FE0910303F0910403309711F0BA01F8
:1001D00009940895862FE0910103F091020330976E
:1001E00011F0BA0109940895862FE091FF02F09171
:1001F0000003309711F0BA0109940895862FE09119
:10020000FD02F091FE02309711F0BA0109940895B1
:100210000895862F642FE0910903F0910A03309727
:1002200011F0A90109940895E0910B03F0910C03DA
:10023000309709F009940895CF93DF93FC01A081D2
:10024000B181109701F1EC01ED91FC9111970190B2
:10025000F081E02D69EFCD01099588819981DC015C
:10026000ED91FC910190F081E02D62E0099588818B
:100270009981DC01ED91FC910190F081E02D65E028
:10028000DF91CF910994DF91CF910895A091B004AF
:10029000B091B104ED91FC9111970190F081E02DA6
:1002A000682FCD0109941F93CF93DF93182FEB0193
:1002B00080917704909178046817790760F48091B1
:1002C000750490917604C80FD91F188380E0DF91E0
:1002D000CF911F910895E091A404F091A504309767
:1002E00011F481E0F4CF81E0809374048091900454
:1002F0009091910409958091770490917804C817A2
:10030000D90778F7DCCFCF93DF93EC01FB0130E026
:1003100020E0C901880F991F8C179D0778F4408150
:10032000DB014D93BD011197918197959927979581
:10033000942B9C932F5F3F4F3296EBCFC901DF91F7
:10034000CF910895009721F0805C9F4F0C941C0181
:100350000895AF92BF92CF92DF92EF92FF920F93E8
:100360001F93CF93DF936C017B018B01040F151F4B
:10037000EB015E01AE18BF08C017D10759F06991B3
:10038000D601ED91FC910190F081E02DC601099517
:10039000892B79F7C501DF91CF911F910F91FF90C4
:1003A000EF90DF90CF90BF90AF900895FC01538DF8
:1003B000448D252F30E0842F90E0821B930B54173F
:1003C00010F0CF96089501970895FC01918D828DCC
:1003D000981761F0A28DAE0FBF2FB11D5D968C9165
:1003E000928D9F5F9F73928F90E008958FEF9FEFA4
:1003F0000895FC01918D828D981731F0828DE80F60
:10040000F11D858D90E008958FEF9FEF0895FC0119
:10041000918D228D892F90E0805C9F4F821B9109E6
:100420008F739927089585E993E00E94070221E0E0
:10043000892B09F420E0822F089580E090E0892B39
:1004400029F00E94130281110C9400000895FC0110
:10045000A48DA80FB92FB11DA35ABF4F2C91848D25
:1004600090E001968F739927848FA689B7892C9382
:10047000A089B1898C91837080648C93938D848DD5
:10048000981306C00288F389E02D80818F7D8083D8
:100490000895EF92FF920F931F93CF93DF93EC0198
:1004A00081E0888F9B8D8C8D98131AC0E889F9891B
:1004B000808185FF15C09FB7F894EE89FF8960831E
:1004C000E889F98980818370806480839FBF81E09F
:1004D00090E0DF91CF911F910F91FF90EF900895E1
:1004E000F62E0B8D10E00F5F1F4F0F731127E02EBC
:1004F0008C8D8E110CC00FB607FCFACFE889F989F4
:10050000808185FFF5CFCE010E942702F1CFEB8DD0
:10051000EC0FFD2FF11DE35AFF4FF0829FB7F894C7
:100520000B8FEA89FB8980818062CFCFCF93DF93E5
:10053000EC01888D8823B9F0AA89BB89E889F989FB
:100540008C9185FD03C0808186FD0DC00FB607FC30
:10055000F7CF8C9185FFF2CF808185FFEDCFCE0163
:100560000E942702E9CFDF91CF910895833081F077
:1005700028F4813099F08230A9F008958730A9F0ED
:100580008830C9F08430B1F4809180008F7D03C041
:10059000809180008F7780938000089584B58F7755
:1005A00084BD089584B58F7DFBCF8091B0008F7797
:1005B0008093B00008958091B0008F7DF9CFCF93E4
:1005C000DF93282F30E0F901E450FF4F8491F901C7
:1005D000E05FFE4FD491F901E25DFE4FC491CC2360
:1005E000A1F081110E94B602EC2FF0E0EE0FFF1F88
:1005F000EE50FF4FA591B491EC91ED2381E090E096
:1006000009F480E0DF91CF91089580E090E0FACF87
:100610001F93CF93DF93282F30E0F901E450FF4F71
:100620008491F901E05FFE4FD491F901E25DFE4F44
:10063000C491CC23A9F0162F81110E94B602EC2F91
:10064000F0E0EE0FFF1FEC5DFE4FA591B4918FB768
:10065000F894EC91111108C0D095DE23DC938FBF84
:10066000DF91CF911F910895DE2BF8CFCF93DF93C9
:1006700090E0FC01E05FFE4F2491825D9E4FFC0103
:1006800084918823C9F090E0880F991FFC01E851FC
:10069000FF4FA591B491FC01EC5DFE4FC591D49143
:1006A00061110DC09FB7F8948C91209582238C9393
:1006B0008881282328839FBFDF91CF9108956230DE
:1006C00051F49FB7F8943C91822F809583238C93AB
:1006D000E8812E2BEFCF8FB7F894EC912E2B2C9333
:1006E0008FBFEACF8E3008F08E5087708064809381
:1006F0007C0080917A00806480937A0080917A00F7
:1007000086FDFCCF809178009091790008953FB7E5
:10071000F8948091F9029091FA02A091FB02B091B5
:10072000FC0226B5A89B05C02F3F19F00196A11D1C
:10073000B11D3FBFBA2FA92F982F8827BC01CD012B
:10074000620F711D811D911D42E0660F771F881F8A
:10075000991F4A95D1F708958F929F92AF92BF92B9
:10076000CF92DF92EF92FF926B017C010E94870390
:100770004B015C01C114D104E104F104B9F00E9401
:100780008703681979098A099B09683E73408105C6
:10079000910580F321E0C21AD108E108F10888EE42
:1007A000880E83E0981EA11CB11CE4CFFF90EF904F
:1007B000DF90CF90BF90AF909F908F900895CF9291
:1007C000DF92EF92FF92CF93DF93EC018B819C81BC
:1007D0008617970709F471C07C836B83603282E0CF
:1007E0007807D4F58981B8E8CB2ED12CC81AD10866
:1007F00087FDD394CC0CDD1CCC0CDD1C0D2C000C27
:10080000EE08FF088A8128E532E0281B310987FDC0
:100810003395220F331F220F331F032E000C440B7E
:10082000550B2C193D094E095F09DB01653B71052C
:1008300014F0A4EBB0E0B7FF02C0B0E0A0E00E946B
:10084000F12224EB30E040E050E00E94C722C20ECB
:10085000D31EE41EF51EB601E881EC3070F5298147
:1008600088E890E0821B910927FD9395880F991FD6
:10087000880F991F681779077CF02A8188E592E034
:10088000821B910927FD9395880F991F880F991F47
:10089000681779070CF4CB010297880F991F4FB79F
:1008A000F8942E2F30E0F901EE0FFF1FE20FF31F37
:1008B000EC5FFA4F928381834FBFDF91CF91FF901E
:1008C000EF90DF90CF900895DF92EF92FF920F9319
:1008D0001F93CF93DF93EC01D62E7A018901888193
:1008E0008C3008F067C061E08D2D0E94360388814E
:1008F000282F30E0F901EE0FFF1FE20FF31FEC5F2E
:10090000FA4F9D2D9F736081607C692B608320E28C
:1009100032E02E193F0937FF02C02D5F3F4F35955A
:10092000279535952795298320E639E0201B310B43
:1009300037FF02C02D5F3F4F359527953595279599
:100940002A832CE0622F0E946F24829FB001112421
:1009500030E020E0AB01420F531FFA01EE0FFF1F02
:10096000E40FF51FEC5FFA4F908196FD16C02F5FE4
:100970003F4F2C30310571F781110FC0109280006C
:1009800082E0809381001092850010928400B19AD9
:1009900080916F00826080936F00E8818E2F90E0DD
:1009A000FC01EE0FFF1FE80FF91FEC5FFA4F80818B
:1009B000806480838881DF91CF911F910F91FF9098
:1009C000EF90DF9008958F929F92AF92BF92CF9257
:1009D000DF92EF92FF92CF93DF93FC014A01AA24AA
:1009E000BB24C32ED42EE52EFF24DC2DC22F808500
:1009F000982D882391F0C82FD0E0C89DD001C99DC3
:100A0000B00DD89DB00D11249B2F8C9D6001112439
:100A1000DD2D829F90011124C32FA685218532856B
:100A20008385A81321C0AB01440F551F640F751FA8
:100A3000620F731FA385A60FB72FB11D9C93A485CA
:100A4000A60FB72FB11DDC938585680F711DFB01C3
:100A5000C083DF91CF91FF90EF90DF90CF90BF9058
:100A6000AF909F908F900895660F771F660F771F46
:100A7000620F731FA60FB72FB11D1C92DBCFCF9251
:100A8000DF92EF92FF920F931F93CF93DF93CDB737
:100A9000DEB729970FB6F894DEBF0FBECDBF8C012D
:100AA000D8011F96CD90DD90ED90FC9052970E945A
:100AB00087036C157D058E059F0538F40E9487031A
:100AC000F8016787708B818B928B0E948703D80116
:100AD0001F96CD90DD90ED90FC9052976C197D099A
:100AE0008E099F096C32714081059105C8F2F89416
:100AF000F801848195819A8389830184F285E02DB0
:100B00007F012FEFE21AF20A80818F83D8019C9136
:100B10005396ED91FC91549755968C91992309F435
:100B200048C09081982B98879081809589238987E8
:100B300089858B8388E08C83588569854F813C81CA
:100B40002B8189819A81D701508347FD252F3A95C2
:100B50002083262F39F0441F00C00000608300006E
:100B600000C0F2CF38E04D9160830000019761F73B
:100B7000D8015496FC93EE9353974F833C832B8379
:100B80009A83898378940E948703F8016787708B22
:100B9000818B928B29960FB6F894DEBF0FBECDBF26
:100BA000DF91CF911F910F91FF90EF90DF90CF9049
:100BB00008959081982B98879081809589238987C3
:100BC00089858D8388E08E83588569854F813E8134
:100BD0002D8189819A81D701508347FD252F00C03F
:100BE00000C0208300C000C000C000C000C06083FF
:100BF0000000262F3A9541F0441F000000C000C0BD
:100C000000C000C000C0E8CF38E04D9100C0608354
:100C100000C0019709F7D8015496FC93EE935397BF
:100C20004F833E832D83ACCFFF920F931F93CF93BF
:100C3000DF93EC01FF24F394F60E28852F1581F144
:100C400009851A85215041F16F3FE1F430E050E011
:100C500040E06FEF7FEF80E090E00E94C722B90193
:100C6000F8014C815D81CF01801B910B84179507A2
:100C7000B0F44081469FC001479F900D112490839E
:100C80003196EFCF8F2D90E0982F88270197622F14
:100C900070E00E947B24E4CF70E060E0E1CFF88652
:100CA000DF91CF911F910F91FF9008952F923F9266
:100CB0004F925F926F927F928F929F92AF92BF926C
:100CC000CF92DF92EF92FF920F931F93CF93DF9318
:100CD0008C0149015A019B0150E040E060E472E45C
:100CE0008FE090E00E94C722690161E0F8018081F5
:100CF0000E943603A8EEB3E0A50194010E94E6220B
:100D00002B013C01E601D7FC2196D595C7951E0124
:100D1000220C331C220C331CF5E02F1A31080D2C49
:100D2000000CEE08FF08812C912C540184149504CA
:100D3000A604B704E0F461E0F80180810E94080392
:100D4000C230D10518F0C1010197F1F760E0F80158
:100D500080810E940803C230D10518F0C1010197BB
:100D6000F1F7A8958C0C9D1CAE1CBF1CDFCF60E07A
:100D700070E0CB01DF91CF911F910F91FF90EF9029
:100D8000DF90CF90BF90AF909F908F907F906F90AB
:100D90005F904F903F902F900C94AC035F926F92B6
:100DA0007F928F929F92AF92BF92CF92DF92EF92FB
:100DB000FF920F931F93CF93DF935C016901DA01D8
:100DC0005C90232B19F4CC24CA94DC2C8A013A01C0
:100DD000660E771ED0E0C0E0F12CE12C87E0882E73
:100DE000912CF50180819181D8016C910C2E01C06C
:100DF000660F0A94EAF765296F77DC01ED91FC91A3
:100E00000190F081E02D0995BFEFEB1AFB0AF80184
:100E1000608170E0C4018C1B9D0B02C075956795C5
:100E20008A95E2F7562E2196C730D10558F1CE1497
:100E3000DF0441F1D5018D919C91652D6F77DC0127
:100E4000ED91FC910190F081E02D0995BFEFEB1A37
:100E5000FB0A551C5524551C2797E6CFEC14FD04BE
:100E600008F4BFCFDF91CF911F910F91FF90EF90CA
:100E7000DF90CF90BF90AF909F908F907F906F90BA
:100E80005F9008950F5F1F4F6016710639F7209726
:100E900049F3EC14FD0430F7F5018081918161E0A4
:100EA00070E001C0660FCA95EAF761506521DC0168
:100EB000ED91FC910190F081E02DDF91CF911F9198
:100EC0000F91FF90EF90DF90CF90BF90AF909F90E9
:100ED0008F907F906F905F9009941F93CF93DF93D3
:100EE00000D0CDB7DEB7182F7A8369838091720462
:100EF000909173040097C9F0DC01ED91FC91019091
:100F0000F081E02D1031B8F461157044A0F4612F28
:100F1000606E099522E030E0AE014F5F5F4F62E006
:100F200070E082E794E00E94CE060F900F90DF9170
:100F3000CF911F91089560EF09958091720490916F
:100F40007304DC01ED91FC910190F081E02D6FE6DE
:100F500009958091720490917304DC01ED91FC91EC
:100F60000190F081E02D612F099522E030E0AE0183
:100F70004F5F5F4F62E070E082E794E00E94CE0630
:100F80008091720490917304DC01ED91FC910190C9
:100F9000F081E02D67EF0995C8CFEF92FF920F9394
:100FA0001F93CF93DF93C82F8091720490917304A5
:100FB0000097C9F17A018B01DC01ED91FC91019060
:100FC000F081E02D60EF0995809172049091730497
:100FD000DC01ED91FC910190F081E02D6C2F0995E1
:100FE000E7010E0D1F1DC017D10759F030E020E0BA
:100FF000AE0161E070E082E794E00E94CE062196A7
:10100000F2CF8091720490917304DC01ED91FC9118
:101010000190F081E02D67EFDF91CF911F910F914B
:10102000FF90EF900994DF91CF911F910F91FF9066
:10103000EF900895CF92DF92EF92FF920F931F935C
:10104000CF93DF93FC01E058FF4FE080EE2009F4DE
:101050005CC0EC01C05CDF4FA881B981109709F436
:1010600054C0FC01EF57FF4FC080D180F6011181C1
:101070000081ED91FC9111970190F081E02D60EFDE
:10108000CD01099588819981DC01ED91FC91019058
:10109000F081E02D69E7099588819981DC01ED9166
:1010A000FC910190F081E02D602F09958881998154
:1010B000DC01ED91FC910190F081E02D612F09950B
:1010C000F12C01E010E00F5F1F4FE016F10659F020
:1010D00030E020E0A601400F511F61E070E0CE013A
:1010E0000E94CE06F0CF88819981DC01ED91FC91C0
:1010F0000190F081E02D67EFDF91CF911F910F916B
:10110000FF90EF90DF90CF900994DF91CF911F91E6
:101110000F91FF90EF90DF90CF900895009711F01E
:101120000C941A0808952091D002260F3327331FFC
:1011300021323105ECF420916B03FC0190E080E05A
:10114000243069F082E00895A091D0022191AC0191
:1011500042555D4FA40FB52FB11D2C9301968617F4
:1011600098F38091D002680F6093D00280E00895D8
:1011700081E0089510926B0381E080936A031092DE
:10118000450361E082E10E94080361E083E10E947F
:101190000803E9EBF0E080818E7F808380818D7F82
:1011A000808388E48093B80085E48093BC00089530
:1011B000CF93DF9391E09093AD028823B9F0C09173
:1011C000B800D091BA008091BC008A7B8093BC00AB
:1011D00060E082E10E94080360E083E10E9408036E
:1011E0000E94BA08D093BA00C093B800DF91CF91A3
:1011F00008958F929F92AF92BF92CF92DF92EF921B
:10120000FF920F931F93CF93DF93D0919403D1322A
:1012100008F0D7C0182FC09193030E9487036B0179
:101220007C0180916B0381116BC082E080936B0322
:1012300010936A038FEF8093690310926803D09331
:101240006703A3E7B3E0E7E4F3E080E0D81391C0DD
:101250001092460380914603CC0FC82BC0934603DF
:1012600080914503813009F088C0109245030E94A7
:1012700087036B017C01809146038093BB008091C2
:101280006D0390916E03A0916F03B0917003892B51
:101290008A2B8B2BA1F00E94870300916D03109184
:1012A0006E0320916F03309170036C197D098E09D4
:1012B0009F09061717072807390708F442C08091CD
:1012C000BC0083FDD8CF85EC8093BC000E948703CF
:1012D0006B017C0180916B03823009F450C08091D6
:1012E00069038F3F09F46FC080916903803209F46C
:1012F0006CC080916903803309F469C084E026C022
:1013000080916D0390916E03A0916F03B091700373
:10131000892B8A2B8B2B09F484CF0E948703809022
:101320006D0390906E03A0906F03B09070036C19E2
:101330007D098E099F0986169706A806B90608F04A
:1013400070CF80916C030E94D80885E010927203E0
:101350001092940310927103DF91CF911F910F911E
:10136000FF90EF90DF90CF90BF90AF909F908F90C5
:1013700008959D9191938F5F69CF85EEA5CF809160
:101380006D0390916E03A0916F03B0917003892B50
:101390008A2B8B2B09F49ECF0E94870300916D034B
:1013A00010916E0320916F03309170036C197D09C9
:1013B0008E099F09061717072807390708F08ACFF3
:1013C000C0CF81E0C3CF80E0C1CF82E0BFCF83E058
:1013D000BDCF089508950895E091AC028091AB02CD
:1013E000E81730F4F0E0E557FD4F808190E0089574
:1013F0008FEF9FEF08959091AC028091AB022FEF99
:101400003FEF981748F4E92FF0E0E557FD4F2081B2
:1014100030E09F5F9093AC02C90108958091AB02C8
:101420009091AC02891B990B0895CF92DF92EF92B5
:10143000FF920F931F93CF93DF937C01CB018A011F
:1014400020917103222389F0EB016B01C40ED51E9C
:10145000CC15DD0569F06991D701ED91FC91019002
:10146000F081E02DC7010995F3CF642F0E94930806
:10147000C801DF91CF911F910F91FF90EF90DF9006
:10148000CF900895CF93DF931F92CDB7DEB76983D6
:10149000209171032223F9F020919403203258F017
:1014A00021E030E0FC013383228390E080E00F9064
:1014B000DF91CF91089580917203E82FF0E0ED580D
:1014C000FC4F998190838F5F809372038093940384
:1014D00081E090E0ECCF61E0CE0101960E9493089C
:1014E000F7CF90E080E00895CF938830B0F421E00A
:1014F00030E0082E02C0220F331F0A94E2F7409119
:101500003F0350914003672B51F4209530952423DD
:1015100035233093400320933F03CF910895242B2C
:10152000352B3093400320933F0390918A02911111
:10153000F4CFC82F0E947203BC018C2FCF910C9462
:101540006D075F926F927F928F929F92AF92BF9240
:10155000CF92DF92EF92FF920F931F93CF93DF937F
:10156000833008F061C0D1E0D80FDD0FDD0FDD0F53
:101570005D2ED73110F046E1542EC62F082FD850DB
:101580008D2E912CC401880F991F9C012E5C3B4F1E
:101590005901D12CC12C10E077247394D515C8F5CE
:1015A0008EEF8D0F8231F8F4F601E80DF91DEB5442
:1015B000FB4F90819230B8F48C2F8721662463947E
:1015C000811101C0612C7601EE0CFF1C913089F471
:1015D000172939E9E30EF11CF501EE0DFF1D862DEB
:1015E00090E091838083770CDF5F8FEFC81AD80A71
:1015F000D5CF882371F3F701E756FF4FEA0DFB1DA6
:1016000080819181019729F362E08D2F0E9436033A
:10161000E0CF011119C0F8948BB16C2F68276C7F53
:10162000612368276BB97894DF91CF911F910F9157
:10163000FF90EF90DF90CF90BF90AF909F908F90F2
:101640007F906F905F9008950130D1F4C123F8949A
:1016500095B1812F8F73809589239C2F9F73892B40
:1016600085B988B1612F62956695669563706095BE
:101670006823C295C695C695C370C62BC8B9D3CF8B
:101680001F70F89498B1812F880F880F8095892357
:10169000C123CC0FCC0FC82BF1CFFF920F931F9318
:1016A000CF93DF93863118F5EB01F82E082F10E069
:1016B000F801EB54FB4F80818330F9F08430B9F4AA
:1016C0008EEF8F0D823160F4F801E059FD4F80817B
:1016D00025E0829FC0011124875D9A4F0E94DF039D
:1016E000000F111FF801E553FB4FD183C083DF9139
:1016F000CF911F910F91FF90089583E0F81641F06C
:101700008BEF8F0D823020F087EF8F0D833040F705
:1017100061E08F2D0E943603209729F460E08F2D21
:101720000E940803DDCFCF3FD10511F461E0F7CF70
:10173000F801E450FF4FE491E33019F140F4E13057
:10174000B1F0E230C9F0C038D10584F7E7CFE73017
:1017500011F1E83041F1E430B1F78091800080620E
:1017600080938000D0938B00C0938A00B9CF84B55A
:10177000806884BDC7BDB4CF84B5806284BDC8BD58
:10178000AFCF80918000806880938000D0938900E3
:10179000C0938800A5CF8091B00080688093B0008E
:1017A000C093B3009DCF8091B00080628093B00061
:1017B000C093B40095CF9EEF980F923180F4E82F3C
:1017C000F0E0DF01AB54BB4F9C91913041F4EE0F40
:1017D000FF1FE553FB4F608371830C94080308954A
:1017E000FF920F931F93CF93DF9300D0CDB7DEB757
:1017F000082F10E0F801E35FFC4F9081F62EF922EC
:101800000A571D4F411104C0F80190819F1511F135
:101810002F2D30E03A832983A0917204B091730494
:101820001097B1F0682F6F706069ED91FC9111977E
:101830000190F081E02DCD01099522E030E0AE016C
:101840004F5F5F4F62E070E082E794E00E94CE0657
:10185000F801F0820F900F90DF91CF911F910F91BF
:10186000FF900895833040F5282F30E0F901E05FC4
:10187000FC4F6083672B01F1235F3C4FF9016081CE
:10188000811106C099B19C7F692341E00C94F00B53
:10189000813049F493B126B19F73F0E42F9F9001FA
:1018A0001124922BF1CF26B130E03595279535954F
:1018B00027952F706223E9CF0895A82FB0E0A05993
:1018C000BD4F9C9185E0989FF0011124E75DFA4F90
:1018D000E0812E2F30E0F901EE0FFF1FE20FF31F22
:1018E000EC5FFA4F80818F7B808380916E0298132A
:1018F00008C0992319F0915090936E028FEF8C934A
:1019000008958823D9F3E0916F02EF5FE0936F02AF
:10191000F0E0E15EFD4F9083F1CFFC0101900020EB
:10192000E9F73197BF01681B790BAC0181E70C9493
:10193000CD07CF93DF93DB0190916E029C3078F559
:1019400030916F02682F70E0FB01E059FD4F3323A7
:10195000E1F0C32FD0E0C15EDD4F8881808331503C
:1019600030936F02808125E0829FC0011124875D42
:101970009A4F1A161B0674F4141615065CF49A0195
:10198000AD01DF91CF910C94640490839F5F90939D
:101990006E02E8CF20E639E040E252E0F2CF8EE27C
:1019A00091E0DF91CF910C948D0CCF92DF92FF925A
:1019B0000F931F93CF93DF93EC012FB7F89480918F
:1019C000130390911403A0911503B09116032FBF38
:1019D00049855A856B857C8584179507A607B707C7
:1019E00020F419861A861B861C862D85211116C0A7
:1019F00049855A856B857C85841B950BA60BB70B97
:101A0000803D9740A105B10548F481E0DF91CF9179
:101A10001F910F91FF90DF90CF9008951D862FB7F3
:101A2000F8948091130390911403A0911503B09141
:101A300016032FBF89879A87AB87BC871C821B82BE
:101A40001A821982188261E08E810E9408036AEF6F
:101A500070E080E090E00E94AC0361E08E810E9423
:101A6000360360E08E810E94080364E170E080E04C
:101A700090E00E94AC03F89461E08E810E9408031C
:101A80008BE990E00197F1F760E08E810E943603C8
:101A9000F12C81E010E000E0C82ED12C8E810E9454
:101AA000DF028C159D0519F40F5F0F3FB9F78E818A
:101AB0000E94DF020F3FB9F0143090F010FD10C00B
:101AC000EF2DE695E695E695EC0FFD2FF11D908143
:101AD000990F90832885201710F491609083F394D8
:101AE0001F5F1535C1F6789487E28F1590F44C810D
:101AF00028818981280F3327331F8A81280F311DC0
:101B00008B81820F932F911D99274817190609F48D
:101B10007CCF80E07BCF9F92AF92BF92CF92DF923B
:101B2000EF92FF920F931F93CF93DF93C82ED12C88
:101B3000E601CE5CDB4FFE01ED57FF4F90819F37F2
:101B400009F49DC0963061F490918902992341F087
:101B50006630710529F0109289029FEF9093010180
:101B60007B01182F0EEF080F0231F8F46430710575
:101B7000E1F0F601E059FD4FE081EC30B0F485E092
:101B8000E89FF0011124E75DFA4FE0818E2F90E08D
:101B9000FC01EE0FFF1FE80FF91FEC5FFA4F808189
:101BA00086FF03C0812F0E945D0C42EF942E910EA0
:101BB00037E0391558F061E070E082E0E816F10492
:101BC00011F070E060E0892D0E94740A0231C8F4BF
:101BD000E12FE695E695E695F0E0E35FFC4F208186
:101BE000312F377081E090E001C0880F3A95EAF715
:101BF000E114F10421F03BE0E316F10401F5822B3E
:101C000080835601AA0CBB1CF501E553FB4F1182E2
:101C100010828CE0E816F10408F0C9C0F701ED5E0F
:101C2000F14F0C948F24330E600E220E770E960E19
:101C3000D70ECB0ED70ED70ED70E3F0E4B0E80957C
:101C40008223DECF37E03915D0F0023120F460E096
:101C5000812F0E943603CD57DF4F88818F3779F06F
:101C600082E088830CC0023150F460E0812F0E9432
:101C70003603CD57DF4F88818F3709F01882DF9107
:101C8000CF911F910F91FF90EF90DF90CF90BF9079
:101C9000AF909F900895023190F762E0812F0E94EB
:101CA0003603CD57DF4F88818F3711F08BE0888363
:101CB000F501E553FB4F81E090E091838083DFCF16
:101CC0000231E8F6FE01ED57FF4F8081833021F4A9
:101CD00060E0812F0E94080361E0812F0E9436039B
:101CE000CD57DF4F88818F3751F281E0BACF133063
:101CF00049F08BEF810F823028F087EF810F83301E
:101D000008F0BDCF61E0812F0E94360361E0812F92
:101D10000E94360360E0812F0E940803CD57DF4FF9
:101D200088818F3709F4ABCF83E09BCF023108F075
:101D3000A6CFCD57DF4F88818F3711F084E088839D
:101D4000F601E059FD4FE081EF3F99F085E0E89F13
:101D5000F0011124E75DFA4FE0818E2F90E0FC0145
:101D6000EE0FFF1FE80FF91FEC5FFA4F808186FD31
:101D700086CF4FEF5FEF6FEF7FEF812FDF91CF9136
:101D80001F910F91FF90EF90DF90CF90BF90AF9099
:101D90009F900C94990C1251123008F070CFCD57CF
:101DA000DF4F88818F3709F46ACF86E05ACF82E40B
:101DB00091E0DF91CF911F910F91FF90EF90DF9015
:101DC000CF90BF90AF909F900C948D0C0F931F936A
:101DD000CF93DF9381E080938A02809189028823E8
:101DE00029F0109289028FEF809301011092100365
:101DF00010920D03109286021092110310920E039E
:101E0000109287021092120310920F031092880210
:101E100000E712E0C0E0DFEF82EF8C0F62E070E0DD
:101E2000883030F08EEF8C0F823128F461E070E062
:101E30008C2F0E948B0DF801D1938F01CF5FC6319B
:101E400059F71092400310923F0310926F021092C4
:101E50006E0210928A02DF91CF911F910F91089527
:101E60004F925F926F927F928F929F92AF92BF92AA
:101E7000FF920F931F93CF93DF93F82E8B01D42FF4
:101E8000C22F6F3F760709F490C081E08093710301
:101E9000F0929303109272031092940388EF94E0EF
:101EA0000E94420A8C2F0E94F90880916C02909146
:101EB0006D028230910538F0880F991F880F991FA5
:101EC00005970197F1F70E9487034B015C01809110
:101ED0006B0381116CC0CD2FD13208F0C0E281E0DC
:101EE00080936B0380936A039FEF90936903109232
:101EF00068039C0F90936703809346039091460379
:101F00008F2D880F892B8093460380914503813064
:101F100009F0A1C0109245030E9487034B015C01A8
:101F2000809146038093BB0080916D0390916E0376
:101F3000A0916F03B0917003892B8A2B8B2BA1F09A
:101F40000E94870340906D0350906E0360906F0372
:101F500070907003681979098A099B09461657061B
:101F60006806790608F444C08091BC0083FDD8CF90
:101F700085EC8093BC000E9487034B015C0180913B
:101F80006B03813009F469C0809168038C1710F4E9
:101F9000C0916803E7E4F3E0ABE8B2E080E08C17BF
:101FA00061F191919D938F5FFACF00E08CCF80918A
:101FB0006D0390916E03A0916F03B0917003892B14
:101FC0008A2B8B2B09F483CF0E94870340906D03EB
:101FD00050906E0360906F037090700368197909D8
:101FE0008A099B09461657066806790608F06FCFDE
:101FF00080916C030E94D808C0E01092AC02C0939C
:10200000AB022D2F30E08C2F90E0281739070CF011
:1020100046C083E591E00E948D0CF0922C02009363
:102020002D020CE212E0AD2EB12CC8018C52924070
:102030008A159B050CF041C00F5F1F4F9091AB02BA
:102040008091AC029817C9F188EF94E00E94FB09D7
:10205000F8018183EACF85EE8CCF80916D0390915A
:102060006E03A0916F03B0917003892B8A2B8B2B89
:1020700009F485CF0E94870340906D0350906E0352
:1020800060906F0370907003681979098A099B0941
:10209000461657066806790608F071CFA9CF821751
:1020A00093070CF0BACF80E791E00E948D0CD0919D
:1020B000AB028091AC02D81BB0CFDE5F6D2F70E019
:1020C0004CE252E087E7DF91CF911F910F91FF9093
:1020D000BF90AF909F908F907F906F905F904F9048
:1020E0000C94CD070F931F93CF93DF93EC018B01DB
:1020F000198218861F86188A198A1A8A81E08E87A3
:102100008B871C8692E09D8788838CE090E09D837E
:102110008C830E9495249A878987009769F12CE027
:10212000FC0111922A95E9F784E090E09B838A8371
:102130001F830E838981882341F061E0802F0E94F4
:10214000360360E0802F0E940803F801E25DFE4F35
:10215000E491F0E0EE0FFF1FEC5DFE4F859194914E
:102160009C8B8B8BF801E05FFE4FE491ED8BDF9150
:10217000CF911F910F9108951D821C821B821A829C
:10218000D7CFCF93DF93EC0188819981009711F02D
:102190000E943125198218821D821C821B821A829C
:1021A000DF91CF910895FC0180819181009711F01A
:1021B0000C94312508950F931F93CF93DF93EC0177
:1021C00088819981009759F02A813B81261737072A
:1021D00030F081E0DF91CF911F910F9108958B0135
:1021E0006F5F7F4F0E94BA25009759F099838883CB
:1021F0001B830A832C813D81232B59F7FC0110821C
:10220000E8CF80E0E7CFEF92FF920F931F93CF9339
:10221000DF936115710541F480E0DF91CF911F914B
:102220000F91FF90EF90089541155105B1F07B019A
:10223000EC010C811D81040F151FB8010E94DB10F9
:10224000882351F3288139818C819D81B701820FC8
:10225000931F0E9487261D830C8381E0DECFEF92BF
:10226000FF920F931F93CF93DF93EC017B018A01C1
:10227000BA010E94DB1081110BC0CE010E94C11077
:10228000CE01DF91CF911F910F91FF90EF900895B4
:102290001D830C83B701888199810E948726F0CF26
:1022A000CF93DF93DC0198E013968C911397809580
:1022B00067FFDFC01A96ED91FC911B972081822366
:1022C00080831C968C911C97882351F01696ED9173
:1022D000FC911797808113962C911397822B808302
:1022E0001896ED91FC911997208112968C91129776
:1022F0008095822380831C968C911C97882351F0B3
:102300001496ED91FC911597808112962C9112975D
:10231000822B8083E7ECF0E03197F1F700C00000FA
:102320001496ED91FC911597208112968C9112973D
:102330008095822380831896ED91FC911997808176
:1023400012962C911297822B8083E7ECF0E0319764
:10235000F1F700C0000067FF15C01696ED91FC91E3
:102360001797208113968C911397809582238083F1
:102370001A96ED91FC911B97808113962C911397DF
:10238000822B8083E7ECF0E03197F1F700C000008A
:10239000660F915009F088CF1A96ED91FC911B972A
:1023A000908113968C9113978095892380831C9636
:1023B0008C911C97882351F01696ED91FC911797FC
:1023C000808113969C911397892B80831896ED91A9
:1023D000FC911997908112968C9112978095892380
:1023E00080831C968C911C97882351F01496ED9154
:1023F000FC911597808112969C911297892B80836E
:1024000087EC90E00197F1F700C000001196EC9185
:102410001197F0E0E25DFE4FE491F0E0EE0FFF1F58
:10242000EE50FF4FC591D49198811496ED91FC9197
:102430001597208112968C91129780958223808324
:102440001896ED91FC911997808112962C91129714
:10245000822B8083E7ECF0E03197F1F700C00000B9
:1024600013968C91982381E009F480E0DF91CF915D
:1024700008951696ED91FC91179720818223808311
:102480001A96ED91FC911B9725CFFC01A085B18593
:102490009C918281809589238C938485882331F057
:1024A000A481B5818C919281892B8C9387EC90E0EB
:1024B0000197F1F700C00000A285B3859C9183814C
:1024C000809589238C938485882331F0A681B781F8
:1024D0008C919381892B8C9387EC90E00197F1F795
:1024E00000C000000895CF93DF93EC01EA85FB85DF
:1024F00090818B818095892380838C85882331F01E
:10250000EE81FF8180819B81892B8083E885F9851D
:1025100090818A818095892380838C85882331F0FE
:10252000EC81FD8180819A81892B808387EC90E00A
:102530000197F1F700C00000EE81FF8190818B814F
:10254000809589238083EA85FB8580819B81892B07
:10255000808387EC90E00197F1F700C00000EC81E8
:10256000FD8190818A81809589238083E885F98522
:1025700080819A81892B808387EC90E00197F1F725
:1025800000C00000660FCE010E9450118D87DF91C0
:10259000CF9108957F928F929F92AF92BF92CF92E8
:1025A000DF92EF92FF920F931F93CF93DF9300D0B0
:1025B00000D000D0CDB7DEB7DC0150962C9122239D
:1025C00009F49AC08B016C01FB0184819581F12C87
:1025D000E12C24E030E05901A81AB90AEA14FB04FE
:1025E00008F451C05601F6E9AF0EB11CF12CE12CF4
:1025F000F60181899289E816F90608F07DC0D801B4
:1026000014962D913C911597E216F30608F070C0D0
:102610008D919C91009709F46BC08E0D9F1DFC015C
:1026200080818F77E216F30608F064C0D8012D91FF
:102630003C912115310509F45DC02E0D3F1DF901B6
:1026400060816078762EE82FF0E0E859FF4FE49142
:102650004501D501EC93882309F44EC064E36E0D67
:10266000C6010E947312BFEFAB1ABB0AF40160816E
:102670006729C6010E945011C6010E944512FFEF52
:10268000EF1AFF0AB5CF1A8219821C821B821E82A2
:102690001D8241E050E06CE871E0CE0101960E949D
:1026A0002F11D80114964D915C9115976D917C91E5
:1026B000CE0101960E940311811104C0CE01019642
:1026C0000E94C11069817A816115710569F04D819F
:1026D0005E81C8010E942F11CE0101960E94D31085
:1026E000BFEFEB1AFB0A7ACFC8010E94C110F4CFEA
:1026F00080E097CF60E0A5CF26960FB6F894DEBFB6
:102700000FBECDBFDF91CF911F910F91FF90EF9042
:10271000DF90CF90BF90AF909F908F907F90089563
:1027200085ED8093BC0080916D0390916E03A09124
:102730006F03B09170030796A11DB11D23E0B695FC
:10274000A795979587952A95D1F72091BC0024FDF0
:1027500003C010926B03089540916D0350916E0376
:1027600060916F0370917003452B462B472B69F3E3
:102770000097A105B10541F025E32A95F1F7000086
:102780000197A109B109E1CF80916C030C94D8089D
:102790004F925F926F927F928F929F92AF92BF9271
:1027A000CF92DF92EF92FF920F931F93CF93DF931D
:1027B000CDB7DEB7C35CD1090FB6F894DEBF0FBE4C
:1027C000CDBFF82EE62E8A01DA012C9130E050E0E0
:1027D00040E019A26E01B1E2CB0ED11C9AE0492E65
:1027E000512C612C712CCA01B901A30192010E94E4
:1027F0003023605DF60162936F01211531054105BB
:10280000510589F7309761F001900020E9F7319781
:10281000AF014C195D09B60185E993E00E94A90159
:1028200042E050E06EE871E085E993E00E94A90182
:10283000F9E6FF1609F405C6FF1508F455C021E3B3
:10284000F21609F4CEC22F1560F139E2F31609F43D
:10285000F0C040E3F41609F477C268E2F6122CC027
:10286000D8019C9111968C919F839BE0988796E06C
:10287000998791E09E878111A9C0CE0101960E949F
:10288000D50C882349F088858B3009F46FC020F07F
:102890008551823008F471C060E070E080EC9FE701
:1028A0008EC083E3F81609F47FC3F81608F41EC33C
:1028B00094E3F91609F409C3CD53DF4F0FB6F8942A
:1028C000DEBF0FBECDBFDF91CF911F910F91FF9063
:1028D000EF90DF90CF90BF90AF909F908F907F90C0
:1028E0006F905F904F900895A0E7FA1609F4A4C482
:1028F000AF1540F1BDE6FB1609F461C5EFE6FE1623
:1029000009F4FCC4FBE6FF12D7CF80EF0E9446011A
:102910008CE60E9446011EEF84EF810F883008F09C
:1029200029C582E00E9446018AE00E9446018DEF9F
:10293000810F823008F421C589EF810F833008F0C0
:1029400022C51BC528E7F21609F436C43AE7F31688
:1029500009F4BAC446E7F412AFCFF801918195FFAC
:1029600053C381E991E00E948D0CA6CF6B8170E08A
:1029700090E080E00E94CC2122C01B81612F6F7704
:1029800070E090E080E00E94CE2120E030E040E85E
:1029900053E40E9409226B017C016C8170E090E09D
:1029A00080E00E94CE21A70196010E94622320E0D0
:1029B00030E040E251E40E94CE2317FD90580E947F
:1029C0004024B62E6B2D70E082E000C28130D1F73A
:1029D000CE0101960E94D50C882309F45DCF88852D
:1029E0008B3029F108F458CF8551823008F054CF4C
:1029F000698170E090E080E00E94CC2120E030E02E
:102A000040E853E40E9409226B017C016A8170E076
:102A100090E080E00E94CE21A70196010E946223EF
:102A200020E030E040E251E40E94CE23C8CF69812B
:102A30009ECFF801C080D180A280B12CC854DF4F56
:102A400019821882C85BD040C654DF4F19821882A1
:102A5000CA5BD040C454DF4F19821882CC5BD0408F
:102A600050E040E060E971E0CE0188549F4F0E9441
:102A70002F114801F3E08F0E911C22E0A20EB11C31
:102A8000CE0101967C01C401801B910BA816B906EA
:102A90000CF43FC0D4018D914D01C254DF4F198217
:102AA0001882CE5BD040C054DF4F19821882C05CC0
:102AB000D040CE53DF4F19821882C25CD0404AE02A
:102AC000B70190E00E94A221F70101900020E9F7F0
:102AD0003197AF014E195F09B701CE0182549F4F64
:102AE0000E942F11CE53DF4F48815981C25CD040E4
:102AF000C254DF4F68817981CE5BD040CE018854CB
:102B00009F4F0E940311CE0182549F4F0E94D31009
:102B1000BACF81E08D87B4E0CB1205C0E5E0DE12CC
:102B200002C087E0D82ED982CA828D2D90E0FC01A8
:102B3000E05FFE4FE491EB832C2D30E0F901E05F84
:102B4000FE4F44914C83825D9E4FFC01849190E046
:102B5000880F991FFC01EC5DFE4F659174917E8397
:102B60006D83FC01E851FF4F859194919A87898785
:102B7000F901E25DFE4F849190E0880F991FFC01FE
:102B8000EC5DFE4F2591349138872F83FC01E8518D
:102B9000FF4FA591B491BC87AB878FEF8E87EC91E7
:102BA00040954E234C938D85882331F0EF81F88535
:102BB00080819C81892B8083E985FA8590818B8136
:102BC0008095892380838D85882331F0ED81FE8176
:102BD00080819B81892B808387EC90E00197F1F7BE
:102BE00000C0000084E090E09B8B8A8B188A1F86CF
:102BF000C956DF4F1882C759D040C855DF4F1882D9
:102C0000C85AD040C856DF4F1882C859D040C7555F
:102C1000DF4F1882C95AD040C756DF4F1882C959B2
:102C2000D040C655DF4F1882CA5AD040C656DF4F33
:102C30001882CA59D040C555DF4F1882CB5AD040B0
:102C400064E3C7010E947312C7010E9445128E857A
:102C500091E0811190E0998B81111DC08E01095680
:102C60001F4FD12CC12C8A899B89C816D90698F48C
:102C700064E36C0DC7010E947312D8011D928D018F
:102C800060E0C7010E945011C7010E944512BFEFCA
:102C9000CB1ADB0AE8CF89898823F9F08E01085521
:102CA0001F4FD12CC12C8A899B89C816D906A8F43C
:102CB00064E26C0DC7010E947312F80161918F01EB
:102CC000616031976083C7010E945011C7010E9463
:102CD0004512FFEFCF1ADF0AE6CFC254DF4F198249
:102CE0001882CE5BD040C054DF4F19821882C05C7E
:102CF000D040CE53DF4F19821882C25CD040C854F6
:102D0000DF4F68817981C85BD0406115710559F04A
:102D1000C454DF4F48815981CC5BD040CE018254EE
:102D20009F4F0E942F11BE0162547F4FC7010E9426
:102D3000CA12CE0182549F4F0E94D310CE018854F4
:102D40009F4F0E94D310B8CDD801DC9011962C91E2
:102D500011971396EC90B0E8EB9EC0011124F80196
:102D6000E280E80EF92EF11C8581F0E88F9FC0010A
:102D70001124D80114960C91080F192F111DD98216
:102D8000211127C088EE93E0089FB001099F700DC4
:102D9000189F700D1124072E000C880B990B0E94B0
:102DA000CE2120E030E040E05FE30E9409220E9453
:102DB00040249B01AC01B701CE0101960E9456064A
:102DC000B7018D2D0E946D07B8018D2D0E946D07F2
:102DD00073CD2130A9F79801012E000C440B550B3F
:102DE000EACFF801B1809280C380A480608170E056
:102DF000CE0101960E94721060910001CE010196F1
:102E00000E9414068F81988597FD07C061E00E949B
:102E1000360360E08F810E94080381E08A834D8140
:102E20005E8170E060E08A859B850E948026D12CBF
:102E3000F12CE12CFE2CED2CDC2CCC24E928CA282A
:102E40008FEF8B0D843018F52B2D2150330BB901EA
:102E50008B819C812817390730F4A7019601CE0198
:102E600001960E94E3048A859B85892B21F0CE017F
:102E700001960E943F058A859B850E9431258F819E
:102E8000988597FD19CD60E00E94360315CDB110ED
:102E9000F2CF10E000E08B819C810817190738F40D
:102EA000A7019601B801CE0101960E94E3048A852C
:102EB0009B85892B21F0CE0101960E943F050F5F73
:102EC0001F4F0430110539F7D6CFD8016C911196F8
:102ED0001C911093000170E0CE0101960E947210C7
:102EE000612FCE0101960E941406C5CFF801F08033
:102EF000118161E08F2D0E94360360E0812F0E94D6
:102F00003603F11204C061E08F2D0E94360360E0A9
:102F10008F2D0E94080383E090E00197F1F761E0B4
:102F20008F2D0E94080383E290E00197F1F760E0A3
:102F30008F2D0E940803F11204C060E0812F0E94CF
:102F400036030E9487036B017C01812F0E94DF0200
:102F5000892B59F40E9487036C197D098E099F09FA
:102F600061327E448105910580F30E9487036B01E5
:102F70007C01812F0E94DF02892B59F00E94870378
:102F80006C197D098E099F0961327E448105910586
:102F900080F30E948703CB018C199D0968E370E0E0
:102FA0000E947B24772710CDD8016C9111961C913B
:102FB0008FEF9FEF9D838C83809128058C3008F5DF
:102FC00091E0980F90932805898390E0FC01EE0F23
:102FD000FF1FE80FF91FEC5FFA4F88EB9BE092832D
:102FE000818370E020E639E040E252E0CE010196B4
:102FF0000E946404612F70E0CE0101960E94DF03FD
:103000005BCC8FEF8983EDCFD801808196FB33278E
:1030100030F921E0232798719830B1F1F8F491113B
:103020004BCC91E0909371038093930310927203C1
:103030001092940372E0F72EFE14F0F4F801EF0DF5
:10304000F11D61816795662767958081680F88EF1C
:1030500094E00E94420AF394F394EECF903191F100
:10306000983109F029CC2091010112160CF45FC0AF
:103070008FEF8093010120CC81E00E94F90883E169
:1030800091E00197F1F718CC92814381F6E0EF12BD
:1030900012C030E8439FB0011124690F711D1596CD
:1030A0004C91159747954427479514969C91490F45
:1030B0000E94300F01CC479544274795490F6FEF89
:1030C0007FEFF6CFE0910101E7301CF081EB91E05A
:1030D0004ACC12963C91129713969C91B6E0EB1253
:1030E0001FC0F0E89F9FA0011124430F511DD8017C
:1030F00015969C91159797959927979514963C91BD
:10310000930FEF5FE0930101B5E0EB02F0011124B2
:10311000E95EFC4F80835283418393832483CCCB2D
:10312000979599279795930F4FEF5FEFEACF90E030
:10313000622F022E000C770B35E0492F50E0641708
:10314000750764F0349FF001359FF00D1124E95E9E
:10315000FC4F4081481719F09F5FEFCF90E085E06A
:10316000492F50E0641775071CF19830F8F4FA0104
:1031700031968E9FD0018F9FB00D1124A95EBC4F58
:103180003C91849FF001859FF00D1124E95EFC4F76
:10319000308311964D915C9112975283418313961F
:1031A0003C911397338314963C9134839F5FD8CF1F
:1031B00021502093010180CBE1E0EE1590F4D8017D
:1031C00011968C91B0E88B9F90011124F8018081B9
:1031D000820F932F911D009721F090936D028093A1
:1031E0006C0280918902811167CB10E08EEE810F15
:1031F000823028F466E070E0812F0E948B0D1F5F03
:103200001631A1F781E0809389021092AC021092EE
:10321000AB0210927203109294030E94BA0889EED6
:1032200099E09093CF028093CE028AEE99E090933A
:10323000D3028093D20240CBF4E0FE1508F03CCBE1
:10324000D801FC908EEF8F0D823108F035CB1196AE
:10325000EC9011971296CC9012971396DC901397DE
:1032600014961C91EF2DF0E0E059FD4FE081EC3019
:10327000B0F4B5E0EB9FF0011124E75DFA4FE08177
:103280008E2F90E0FC01EE0FFF1FE80FF91FEC5F9F
:10329000FA4F808186FF03C08F2D0E945D0CE0E80D
:1032A0001E9FA00111244D0D511DF0E8CF9EB001CD
:1032B00011246E0D711D8F2D0E94990C64E070E039
:1032C0008F2D0E948B0DF8CA21E02E1508F0F4CA4C
:1032D000D80111968C91B0E88B9F90011124F801D0
:1032E0008081820F932F911D009729F09093030105
:1032F00080930201E1CA81E090E0F8CFF1E0FE1591
:1033000008F0DACAD80111966C9170E0B2E0EB16C1
:10331000B1F0F8018281F0E88F9FC0011124682B81
:10332000792B23E0E21659F0D80113968C9190E0A6
:1033300090E4899F902D88271124682B792BF80120
:1033400080810E944D0BB8CA123108F0E5CA80E0B6
:103350000E94460181E00E9446018BE00E944601E6
:1033600081E00E94460181E00E94460181E00E94C6
:103370004601D2CA113009F0DACA83E00E94460140
:1033800088E00E944601123130F484E00E94460138
:103390008EE00E94460180EF810F823030F486E09B
:1033A0000E94460181E00E9446018FE70E9446018B
:1033B0001F5F143149F687EF0E9446017DCAEE2057
:1033C00009F47ACAD8010C9180EF0E9446018EE67A
:1033D0000E944601802F0E944601063160F710E0EE
:1033E000F801EB54FB4F80810E944601000F111F32
:1033F000F801E553FB4F7F0180818F770E944601E2
:10340000D7018D919C919C012078232B39F0880F56
:10341000892F881F990B8F770E944601F801E55389
:10342000FB4F808191819C012227307C232B19F254
:10343000990F880B990F982F881F8F770E9446014C
:10344000BACF80EF0E9446018AE60E94460112EF41
:103450008FE7183008F4812F0E9446011F5F183053
:10346000B9F7A9CF1F920F920FB60F9211242F9385
:103470003F934F935F936F937F938F939F93AF93FC
:10348000BF93EF93FF9385E993E00E942702FF919A
:10349000EF91BF91AF919F918F917F916F915F91CC
:1034A0004F913F912F910F900FBE0F901F90189545
:1034B0001F920F920FB60F9211242F938F939F9309
:1034C000EF93FF93E091A503F091A6038081E09133
:1034D000AB03F091AC0382FD1BC090818091AE03E1
:1034E0008F5F8F732091AF03821741F0E091AE039D
:1034F000F0E0EB56FC4F958F8093AE03FF91EF9178
:103500009F918F912F910F900FBE0F901F90189544
:103510008081F4CF1F920F920FB60F9211242F9338
:103520003F938F939F93AF93BF9380911303909199
:103530001403A0911503B09116033091F80223E013
:10354000230F2D3758F50196A11DB11D2093F802C8
:103550008093130390931403A0931503B093160361
:103560008091F9029091FA02A091FB02B091FC02C5
:103570000196A11DB11D8093F9029093FA02A093C8
:10358000FB02B093FC02BF91AF919F918F913F914D
:103590002F910F900FBE0F901F90189526E8230FC4
:1035A0000296A11DB11DD2CF1F920F920FB60F929E
:1035B00011240F900FBE0F901F9018951F920F921D
:1035C0000FB60F9211242F933F934F935F936F93F6
:1035D0007F938F939F93AF93BF93CF93DF93EF939B
:1035E000FF938091F502C0912805D0E087FF24C0A9
:1035F00010928500109284008091F5028F5F809375
:10360000F5028091F502082E000C990B8C179D078E
:1036100024F48091F5028C30C4F180918400909163
:103620008500049680349C4908F47AC08091840017
:1036300090918500049676C08091F502082E000CCA
:10364000990B8C179D07C4F6E091F5028E2FEE0FB3
:10365000990BFC01EE0FFF1FE80FF91FEC5FFA4F0B
:10366000808186FFC9CFE091F5028E2FEE0F990B76
:10367000FC01EE0FFF1FE80FF91FEC5FFA4F80818E
:1036800060E08F730E940803B7CF209184003091CF
:103690008500E091F5028E2FEE0F990BFC01EE0FE5
:1036A000FF1FE80FF91FEC5FFA4F81819281820FB3
:1036B000931F9093890080938800E091F5028E2FEC
:1036C000EE0F990BFC01EE0FFF1FE80FF91FEC5FE7
:1036D000FA4F808186FF11C0E091F5028E2FEE0F28
:1036E000990BFC01EE0FFF1FE80FF91FEC5FFA4F7B
:1036F000808161E08F730E940803FF91EF91DF9159
:10370000CF91BF91AF919F918F917F916F915F9179
:103710004F913F912F910F900FBE0F901F901895D2
:1037200080E49CE990938900809388008FEF8093D8
:10373000F502E3CF1F920F920FB60F9211242F9331
:103740003F934F935F936F937F938F939F93AF9329
:10375000BF93EF93FF938091B900887F803609F47F
:103760004AC0F0F5883209F4A7C018F5803109F491
:103770009BC0B8F4882309F4F9C0883009F494C0D8
:10378000FF91EF91BF91AF919F918F917F916F9139
:103790005F914F913F912F910F900FBE0F901F900F
:1037A0001895883109F488C0803251F780936903F5
:1037B00014C0803409F49DC040F48033B9F38833D9
:1037C000F9F68093690385ECB0C0803509F485C0B3
:1037D000883509F496C0883499F60E949013D0CFAA
:1037E000883909F48CC038F5883729F050F48836C8
:1037F00011F0803729F683E080936B031092F40276
:1038000057C0883809F47BC0803919F0803809F036
:10381000B7CF8091F402803208F071C0E091F402D9
:1038200081E08E0F8093F4028091BB00F0E0EC52B7
:10383000FD4F80833DC0803B39F0E0F4803A09F4CD
:1038400079C0883A09F09CCF84E080936B03109292
:10385000D1021092D002E091CE02F091CF020995F0
:103860008091D00281110FC081E08093D00210922C
:10387000AE0209C0803C09F4A6CF883C09F4A3CF6E
:10388000883B09F07DCFE091D10281E08E0F8093DB
:10389000D102F0E0E255FD4F80818093BB00909112
:1038A000D1028091D00229C0809146038093BB0051
:1038B00085EC8093BC0064CF90916803809167038E
:1038C000981758F5E091680381E08E0F80936803A4
:1038D000F0E0E95BFC4F8081E9CFE091680381E093
:1038E0008E0F809368038091BB00F0E0E95BFC4F92
:1038F000808390916803809167039817C8F285E8E8
:10390000D8CFE091680381E08E0F809368038091A7
:10391000BB00F0E0E95BFC4F808380916A0381117A
:103920005CCF81E08093450384EA8093BC001092D1
:103930006B0326CF85EC8093BC0010926B038091C3
:10394000F402803230F4E091F402F0E0EC52FD4FEA
:1039500010826091F40270E0E091D202F091D30203
:1039600084ED92E009951092F4020ACF1092690357
:1039700034CF109298031092970348EE53E060E022
:1039800070E04093990350939A0360939B03709364
:103990009C038EE091E0909396038093950385ECD1
:1039A00090E09093A2038093A10384EC90E0909325
:1039B000A4038093A30380EC90E09093A6038093EC
:1039C000A50381EC90E09093A8038093A70382EC79
:1039D00090E09093AA038093A90386EC90E09093E3
:1039E000AC038093AB031092AE031092AF0310921E
:1039F000B0031092B10382E394E01092730410922A
:103A00007204909376048093750420E430E0309340
:103A10007804209377041092790410927A0410921B
:103A20007C0410927B0410927D0410927F0410920B
:103A30007E041092810410928004109283041092EC
:103A400082041092850410928404109287041092CC
:103A50008604109289041092880410928B041092AC
:103A60008A04109291041092900410929304109280
:103A7000920410929504109294041092970410925C
:103A800096041092A5041092A4041092740410924B
:103A9000B2041092B4041092B3041092F7042CEC08
:103AA00030E0309399042093980426ED30E0309371
:103AB0009B0420939A0420EE30E030939D042093E1
:103AC0009C042AEE30E030939F0420939E0424EF60
:103AD00030E03093A1042093A0042EEF30E0309327
:103AE000A3042093A20428E031E03093A70420939C
:103AF000A60429E031E03093A9042093A8042EE81D
:103B000038E03093AB042093AA0490938D04809303
:103B10008C0422EA31E03093AD042093AC049093FE
:103B20008F0480938E0484E191E09093AF0480939E
:103B3000AE041092FB041092FA044093FC045093DC
:103B4000FD046093FE047093FF0480E291E0909383
:103B5000F9048093F804E9E2F5E02FEF3FEF4FEF2F
:103B600068EB7BE034832383809128058C30B8F4A4
:103B700091E0980F90932805808390E0DC01AA0FD4
:103B8000BB1FA80FB91FAC5FBA4F12967C936E9300
:103B90001197359685E0E536F80721F708954083BB
:103BA000F8CF789484B5826084BD84B5816084BD8B
:103BB00085B5826085BD85B5816085BD80916E00CB
:103BC000816080936E0010928100809181008260FC
:103BD0008093810080918100816080938100809139
:103BE00080008160809380008091B1008460809328
:103BF000B1008091B00081608093B00080917A0024
:103C0000846080937A0080917A00826080937A0049
:103C100080917A00816080937A0080917A00806838
:103C200080937A001092C10085E18093B204809164
:103C3000B3049091B4040E943125C091B204D0E045
:103C4000CE0101960E9495249093B4048093B3040E
:103C5000FC01EC0FFD1F108212E0DC011C9325E03B
:103C600011962C93AE01425051096BE072E002961E
:103C70000E948E268DE49BE09093080380930703B7
:103C800081EA9AE0909306038093050384E79AE023
:103C9000909304038093030382E39CE090930203D8
:103CA000809301038BE89DE0909300038093FF02D3
:103CB0008BED9BE09093FE028093FD0288EC93E1F4
:103CC00090930A038093090386EE9EE090930C0381
:103CD00080930B03E091A503F091A6031083E0917C
:103CE000A503F091A6031082E091A103F091A20335
:103CF0001082E091A303F091A40380E180831092ED
:103D0000AD03E091A903F091AA0386E08083E091DE
:103D1000A703F091A803808180618083E091A703CD
:103D2000F091A803808188608083E091A703F091DF
:103D3000A803808180688083E091A703F091A803A5
:103D400080818F7D80838091F70481114FC061E075
:103D50008DE00E94360362ED70E080E090E00E940A
:103D6000AC0361E08DE00E94080368E270E080E04F
:103D700090E00E94AC0360E08DE00E94080362EDD9
:103D800070E080E090E00E94AC0361E08DE00E9472
:103D9000080368E270E080E090E00E94AC0360E01D
:103DA0008DE00E9408036AEF70E080E090E00E94DE
:103DB000AC03C5E062ED70E080E090E00E94AC03EF
:103DC00061E08DE00E94080368E270E080E090E02E
:103DD0000E94AC0360E08DE00E940803C15051F7DF
:103DE0006DE770E080E090E00E94AC0385E993E02D
:103DF0009093B1048093B004909373048093720401
:103E000082E794E00E941C0182E394E00E941A0879
:103E10000E94E60E25E0D22EC0E0D0E0CC24C39470
:103E200002E010E0EE24E394F12C8091100388234B
:103E300049F069B180910D0368236C7F40E080E018
:103E40000E94F00B80911103882379F063B186B151
:103E50006F73B0E48B9FC0011124682B80910E0317
:103E6000682340E081E00E94F00B809112038823D8
:103E700059F066B180910F038F706695669568233F
:103E800040E082E00E94F00B8091B0049091B10478
:103E9000DC01ED91FC910084F185E02D0995892BE1
:103EA00009F4CEC18091B0049091B104DC01ED9190
:103EB000FC910284F385E02D09959C018F3F9807C2
:103EC00019F3982F80917D04882309F492C0973FBD
:103ED00009F07EC010927D04A0917504B091760423
:103EE0006C916137C1F1693709F05CC0E091AA04B7
:103EF000F091AB04309741F280917E0490917F0461
:103F00008330910560F430E020E050E040E070E064
:103F100060E080918C0490918D040995B5CFBD012E
:103F20006D5F7F4F03970E948301BC016D5F7F4FE0
:103F300080E00E945301E0917504F09176049F01A6
:103F40002D5F3F4F428150E0618170E0E091AA0413
:103F5000F091AB04DECF8091A6049091A704892B49
:103F600009F492CFBD016F5F7F4F80917E049091E5
:103F70007F0401970E948301BC016F5F7F4F80E047
:103F80000E94530160917504709176046F5F7F4FBA
:103F9000E091A604F091A70480919204909193047B
:103FA000099572CFE091A804F091A904309709F423
:103FB0006BCF9D012F5F3F4F40917E0450917F0456
:103FC00041505109809194049091950409955CCFDA
:103FD00060917E0470917F04822F0E945301809132
:103FE0007E0490917F04019690937F0480937E04D9
:103FF0004BCF60917B0470917C046115710509F4CD
:10400000B1C027FDAFC06150710970937C0460930B
:104010007B04822F0E94530180917B0490917C0449
:10402000892B09F031CF80917904882309F42CCFB2
:10403000803D09F483C040F4803949F1803C09F4A3
:1040400069C01092790420CF843FE1F1853F09F4E3
:104050004DC0803EB1F7E0919804F09199043097FB
:1040600081F3A0917504B09176044C9120E8429FB1
:10407000C001112411964C91480F592F511D609188
:104080007A0480918004909181040995DACFE091BF
:104090009A04F0919B043097A1F2A0917504B0911D
:1040A00076044C9120E8429FC001112411964C9156
:1040B000480F592F511D60917A048091820490918C
:1040C0008304E3CFE091A004F091A104309709F4B8
:1040D000B8CFA0917504B09176044C9150E0119640
:1040E0006C918091880490918904CFCFE091A204D3
:1040F000F091A304309709F4A4CFA0917504B09176
:1041000076044C9150E011966C9180918A049091C4
:104110008B04BBCFE0919C04F0919D04309709F48F
:1041200090CFA0917504B09176044C9150E06091CD
:104130007A048091840490918504A7CFE0919E0435
:10414000F0919F04309709F47CCFA0917504B09151
:1041500076044C9150E060917A04809186049091AD
:10416000870493CF903F30F4822F8F7080937A042E
:10417000922F907F903FF1F190F4903CB1F150F488
:10418000903909F081CE10937C0400937B049093C6
:1041900079047ACE903D49F1903EA9F375CE993FCE
:1041A00009F442C028F48CE0890F823060F36CCEB1
:1041B0009F3F09F069CE10927C0410927B0410920C
:1041C000790410927A0490E080E020917704309195
:1041D000780482179307A8F4E0917504F0917604AF
:1041E000E80FF91F10820196F0CFF0927C04E09264
:1041F0007B04CDCFC0927D0410927F0410927E0488
:1042000043CE10927D0410927F0410927E04E091C0
:10421000AE04F091AF04809196049091970430978A
:1042200009F432CE099530CEE091AC04F091AD04A2
:10423000309709F429CE80918E0490918F04F2CFAB
:104240008FB7F8948090130390901403A0901503F7
:10425000B09016038FBF8091410390914203A091CB
:104260004303B0914403409102015091030170E077
:1042700060E0881A990AAA0ABB0A481559056A0516
:104280007B0508F054C0840F951FA61FB71F8093AD
:10429000410390934203A0934303B093440382E30A
:1042A000882E84E0982E92EFB92E87E08B15C8F007
:1042B000F401ED57FF4F8081823099F480913F03E4
:1042C000909140030B2C02C0959587950A94E2F7D4
:1042D00080FF07C08B2D0E947203BC018B2D0E94B2
:1042E0006D07B394AFEF8A1A9A0AB8E0BB12DDCF1C
:1042F0008091010187FD1BC0B12C2B2D30E08091F6
:104300000101082E000C990B8217930784F0D29EAE
:10431000F001D39EF00D1124E95EFC4F61817281A2
:104320002481438180810E94300FB394E6CF20978F
:1043300009F47BCD0E941302882309F476CD0E94F4
:10434000000073CDBB27FB015527AA27880F991FB3
:10435000AA1FA41710F0A41B83955051B9F7A05DB4
:10436000AA3308F0A95DA193009779F7B111B19331
:104370001192CB010C94BC21DC01FC01672F7191DF
:104380007723E1F7329704C07C916D93708362913B
:10439000AE17BF07C8F30895E89409C097FB3EF431
:1043A00090958095709561957F4F8F4F9F4F992382
:1043B000A9F0F92F96E9BB279395F6958795779500
:1043C0006795B795F111F8CFFAF4BB0F11F460FFC0
:1043D0001BC06F5F7F4F8F4F9F4F16C0882311F018
:1043E00096E911C0772321F09EE8872F762F05C02C
:1043F000662371F096E8862F70E060E02AF09A95C7
:10440000660F771F881FDAF7880F9695879597F9BB
:1044100008950E941C220C948D220E947F2238F065
:104420000E94862220F0952311F00C9476220C94A1
:104430007C2211240C94C1220E949E2270F3959F2D
:10444000C1F3950F50E0551F629FF001729FBB278B
:10445000F00DB11D639FAA27F00DB11DAA1F649F27
:104460006627B00DA11D661F829F2227B00DA11DDA
:10447000621F739FB00DA11D621F839FA00D611D60
:10448000221F749F3327A00D611D231F849F600D81
:10449000211D822F762F6A2F11249F5750409AF0AA
:1044A000F1F088234AF0EE0FFF1FBB1F661F771F36
:1044B000881F91505040A9F79E3F510580F00C9401
:1044C00076220C94C1225F3FE4F3983ED4F38695A4
:1044D00077956795B795F795E7959F5FC1F7FE2BA1
:1044E000880F911D9695879597F9089597F99F677D
:1044F00080E870E060E008959FEF80EC089500246C
:104500000A941616170618060906089500240A9438
:1045100012161306140605060895092E0394000CBE
:1045200011F4882352F0BB0F40F4BF2B11F460FF4D
:1045300004C06F5F7F4F8F4F9F4F089557FD905876
:10454000440F551F59F05F3F71F04795880F97FB57
:10455000991F61F09F3F79F0879508951216130611
:104560001406551FF2CF4695F1DF08C01616170640
:104570001806991FF1CF8695710561050894089575
:10458000E894BB2766277727CB0197F90895052E76
:1045900097FB1EF400940E94DE2257FD07D00E9474
:1045A000302307FC03D04EF40C94DE225095409546
:1045B000309521953F4F4F4F5F4F089590958095CF
:1045C000709561957F4F8F4F9F4F08950E945223A2
:1045D000A59F900DB49F900DA49F800D911D112457
:1045E0000895B7FF0C94E6220E94E622821B930BEB
:1045F00008952F923F924F925F926F927F928F9287
:104600009F92AF92BF92CF92DF92EF92FF920F9361
:104610001F93CF93DF93CDB7DEB7CA1BDB0B0FB66B
:10462000F894DEBF0FBECDBF09942A883988488828
:104630005F846E847D848C849B84AA84B984C884BE
:10464000DF80EE80FD800C811B81AA81B981CE0FB5
:10465000D11D0FB6F894DEBF0FBECDBFED0108959A
:10466000A1E21A2EAA1BBB1BFD010DC0AA1FBB1F76
:10467000EE1FFF1FA217B307E407F50720F0A21BE8
:10468000B30BE40BF50B661F771F881F991F1A9455
:1046900069F760957095809590959B01AC01BD017F
:1046A000CF010895A29FB001B39FC001A39F700DD9
:1046B000811D1124911DB29F700D811D1124911D2A
:1046C00008955058BB27AA270E9479230C948D2265
:1046D0000E947F2238F00E94862220F039F49F3F0A
:1046E00019F426F40C947C220EF4E095E7FB0C946C
:1046F0007622E92F0E949E2258F3BA1762077307A9
:104700008407950720F079F4A6F50C94C0220EF4E6
:10471000E0950B2EBA2FA02D0B01B90190010C01D1
:10472000CA01A0011124FF27591B99F0593F50F4E9
:10473000503E68F11A16F040A22F232F342F442741
:10474000585FF3CF469537952795A795F040539539
:10475000C9F77EF41F16BA0B620B730B840BBAF009
:104760009150A1F0FF0FBB1F661F771F881FC2F774
:104770000EC0BA0F621F731F841F48F48795779588
:104780006795B795F7959E3F08F0B0CF9395880F42
:1047900008F09927EE0F9795879508950E94E223D8
:1047A0000C948D220E94862258F00E947F2240F0B5
:1047B00029F45F3F29F00C94762251110C94C12208
:1047C0000C947C220E949E2268F39923B1F3552316
:1047D00091F3951B550BBB27AA2762177307840714
:1047E00038F09F5F5F4F220F331F441FAA1FA9F3AA
:1047F00035D00E2E3AF0E0E832D091505040E69598
:10480000001CCAF72BD0FE2F29D0660F771F881FF8
:10481000BB1F261737074807AB07B0E809F0BB0BEB
:10482000802DBF01FF2793585F4F3AF09E3F5105FF
:1048300078F00C9476220C94C1225F3FE4F3983E0A
:10484000D4F3869577956795B795F7959F5FC9F7E8
:10485000880F911D9695879597F90895E1E0660F69
:10486000771F881FBB1F621773078407BA0720F0E2
:10487000621B730B840BBA0BEE1F88F7E09508954B
:104880000E94A62288F09F5798F0B92F9927B75118
:10489000B0F0E1F0660F771F881F991F1AF0BA95E4
:1048A000C9F714C0B13091F00E94C022B1E0089560
:1048B0000C94C022672F782F8827B85F39F0B93F52
:1048C000CCF3869577956795B395D9F73EF4909597
:1048D0008095709561957F4F8F4F9F4F0895991BDD
:1048E00079E004C0991F961708F0961B881F7A95E7
:1048F000C9F780950895AA1BBB1B51E107C0AA1FE9
:10490000BB1FA617B70710F0A61BB70B881F991F70
:104910005A95A9F780959095BC01CD010895EE0FA9
:10492000FF1F0590F491E02D09940F931F93CF93EF
:10493000DF938230910510F482E090E0E09167050A
:10494000F091680530E020E0B0E0A0E0309799F405
:104950002115310509F44AC0281B390B24303105D3
:10496000D8F58A819B816115710589F1FB019383DB
:104970008283FE0111C04081518102811381481759
:104980005907E0F04817590799F4109761F012960B
:104990000C93129713961C933296CF01DF91CF910F
:1049A0001F910F9108950093670510936805F4CF48
:1049B0002115310551F04217530738F0A901DB01E9
:1049C0009A01BD01DF01F801C1CFEF01F9CF90934A
:1049D000680580936705CDCFFE01E20FF31F819339
:1049E00091932250310939832883D7CF20916505CF
:1049F00030916605232B41F4209106013091070187
:104A000030936605209365052091040130910501DE
:104A10002115310541F42DB73EB740910801509161
:104A20000901241B350BE0916505F0916605E2173D
:104A3000F307A0F42E1B3F0B2817390778F0AC01C1
:104A40004E5F5F4F2417350748F04E0F5F1F50939E
:104A5000660540936505819391939FCFF0E0E0E078
:104A60009CCFCF93DF930097E9F0FC01329713823C
:104A70001282A0916705B0916805ED0130E020E059
:104A80001097A1F420813181820F931F2091650539
:104A9000309166052817390709F061C0F093660563
:104AA000E0936505DF91CF910895EA01CE17DF0706
:104AB000E8F54A815B819E0141155105B1F7E90195
:104AC000FB83EA8349915991C40FD51FEC17FD0769
:104AD00061F4808191810296840F951FE901998389
:104AE0008883828193819B838A83F0E0E0E0129641
:104AF0008D919C9113970097B9F52D913C91119749
:104B0000CD010296820F931F2091650530916605B5
:104B10002817390739F6309751F510926805109229
:104B20006705B0936605A0936505BCCFD383C283A8
:104B300040815181840F951FC817D90761F44E5FDA
:104B40005F4F88819981480F591F518340838A8123
:104B50009B81938382832115310509F0B0CFF093B7
:104B60006805E09367059ECFFD01DC01C0CF13828D
:104B70001282D7CFB0E0A0E0E0ECF5E20C94FB228B
:104B80008C01009751F4CB010E9495248C01C8013F
:104B9000CDB7DEB7E0E10C941723FC01E60FF71F59
:104BA0009C0122503109E217F30708F49DC0D90196
:104BB000CD91DC911197C617D70798F0C530D10574
:104BC00030F3CE0104978617970708F3C61BD70B5F
:104BD0002297C193D1936D937C93CF010E9431258D
:104BE000D6CF5B01AC1ABD0A4C018C0E9D1EA09164
:104BF0006705B0916805512C412CF12CE12C1097E0
:104C000031F580916505909166058815990509F043
:104C10005CC04616570608F058C080910401909178
:104C20000501009741F48DB79EB74091080150915E
:104C30000901841B950BE817F90708F055C0F0939C
:104C40006605E0936505F90171836083A0CF8D91BE
:104C50009C91119712966C90129713967C901397D3
:104C6000A815B90559F56C0142E0C40ED11CCA144F
:104C7000DB0420F1AC014A195B09DA0112961597A1
:104C800080F06282738251834083D9016D937C935B
:104C9000E114F10471F0D7011396FC93EE9312978F
:104CA00076CF22968C0F9D1FF90191838083F301AB
:104CB000EFCFF0936805E093670569CF4816590672
:104CC00008F42C017D01D3019ACFCB010E949524D9
:104CD0007C01009749F0AE01B8010E947726C80117
:104CE0000E943125870153CF10E000E050CFFB0137
:104CF000DC0102C001900D9241505040D8F7089558
:104D0000DC0101C06D9341505040E0F70895FB0174
:104D1000DC0101900D920020E1F70895FB01DC0118
:104D20004150504048F001900D920020C9F701C059
:104D30001D9241505040E0F70895F894FFCF32FFA4
:104D40001300000069058000000000004902A9016D
:104D5000D60196020702E501F90100000000420AAF
:104D6000150A710AEB090E0AFB09EC094D6178205E
:104D7000736572766F732061747461636865640033
:104D8000556E6B6E6F776E2070696E206D6F646507
:104D9000004932433A20546F6F206D616E79206272
:104DA000797465732072656365697665640049325C
:104DB000433A20546F6F206665772062797465737B
:104DC0002072656365697665640020000D0A003114
:104DD000302D6269742061646472657373696E67F3
:104DE000206E6F7420737570706F727465640074D8
:104DF0006F6F206D616E79207175657269657300E2
:104E00002F55736572732F70616E392F636F6465F0
:104E10002F6669726D6174615F61726475696E6F2E
:104E20002F6578616D706C65732F64696C65626164
:104E30006E4669726D6174612F5374616E64617244
:104E4000644669726D6174612F5374616E6461723E
:0E4E5000644669726D6174612E696E6F0000B8
:107E0000112484B714BE81FFF0D085E080938100F7
:107E100082E08093C00088E18093C10086E0809377
:107E2000C20080E18093C4008EE0C9D0259A86E02C
:107E300020E33CEF91E0309385002093840096BBD3
:107E4000B09BFECF1D9AA8958150A9F7CC24DD24C4
:107E500088248394B5E0AB2EA1E19A2EF3E0BF2EE7
:107E6000A2D0813461F49FD0082FAFD0023811F036
:107E7000013811F484E001C083E08DD089C08234E0
:107E800011F484E103C0853419F485E0A6D080C0E4
:107E9000853579F488D0E82EFF2485D0082F10E0AE
:107EA000102F00270E291F29000F111F8ED06801E7
:107EB0006FC0863521F484E090D080E0DECF843638
:107EC00009F040C070D06FD0082F6DD080E0C81688
:107ED00080E7D80618F4F601B7BEE895C0E0D1E017
:107EE00062D089930C17E1F7F0E0CF16F0E7DF06D8
:107EF00018F0F601B7BEE89568D007B600FCFDCFD4
:107F0000A601A0E0B1E02C9130E011968C91119780
:107F100090E0982F8827822B932B1296FA010C0160
:107F200087BEE89511244E5F5F4FF1E0A038BF0790
:107F300051F7F601A7BEE89507B600FCFDCF97BE46
:107F4000E89526C08437B1F42ED02DD0F82E2BD052
:107F50003CD0F601EF2C8F010F5F1F4F84911BD097
:107F6000EA94F801C1F70894C11CD11CFA94CF0C13
:107F7000D11C0EC0853739F428D08EE10CD085E9AC
:107F80000AD08FE07ACF813511F488E018D01DD067
:107F900080E101D065CF982F8091C00085FFFCCF94
:107FA0009093C60008958091C00087FFFCCF809118
:107FB000C00084FD01C0A8958091C6000895E0E648
:107FC000F0E098E1908380830895EDDF803219F02E
:107FD00088E0F5DFFFCF84E1DECF1F93182FE3DFCA
:107FE0001150E9F7F2DF1F91089580E0E8DFEE27F6
:047FF000FF270994CA
:027FFE00040479
:00000001FF
